:100000001DC100004CC100004AC1000048C10000F1
:1000100046C1000044C1000042C1000040C10000D0
:100020003EC100003CC100003AC1000038C10000E0
:1000300036C100000C94E11032C1000030C1000054
:100040002EC100002CC100002AC1000028C1000000
:1000500026C1000024C1000022C100000C94A11997
:100060001EC100000C94E00F0C94B70F18C10000E3
:1000700016C1000014C1000012C1000010C1000030
:100080000EC100000CC100000AC1000008C1000040
:1000900006C1000004C1000002C100000C94710AF6
:1000A000FEC00000FCC00000FAC00000F8C0000064
:1000B000F6C00000F4C00000F2C00000F0C0000074
:1000C000EEC00000ECC00000EAC00000E8C0000084
:1000D000E6C00000E4C00000E2C00000E0C0000094
:1000E000DEC00000C118C418B318B718BD18FB183B
:1000F000C818CC18D218D618DA18E018E418E8187E
:10010000FB18EE18F218F618000020002300260055
:1001100029002C002F00320000010000030106011D
:10012000090100000A0B02090C0D0E080703040167
:1001300000000000000000000000000000000000BF
:10014000000000000000000000000000000012118C
:10015000100000000000000000000000000000008F
:1001600000000000000000007C3C3E5E2B3D3F2F65
:100170005B5D3B2C2A225C00010210202008081045
:100180002040102040800201020108040201010207
:1001900004081020408080402010080402018004E0
:1001A000020180402010080402010804020101023B
:1001B0000408102040800102040810204080000044
:1001C0002200250028002B002E00310034000201FF
:1001D0000000050108010B010505050507050808D4
:1001E0000808020202020A0A0808040404040101C1
:1001F00001010101010103030303030303030407D6
:1002000007070C0C0C0C0C0C0C0C0202020206066C
:100210000606060606060B0B0B0B0B0B0B0B000062
:100220002100240027002A002D00300033000101A6
:100230000000040107010A014920EB1911241FBE27
:10024000CFEFD1E2DEBFCDBF00E00CBF13E0A0E0F6
:10025000B2E0E6E6F9E400E00BBF02C007900D92C1
:10026000AA31B107D9F729E0AAE1B3E001C01D9294
:10027000A531B207E1F711E0CDE1D1E000E006C021
:1002800021970109802FFE010E944E22CC31D10717
:1002900080E00807A9F70E94FA190C94A224B0CEB6
:1002A0000895E0916F0380916E03E81730F4F0E059
:1002B000E059FC4F808190E008958FEF9FEF089503
:1002C00090916F0380916E03981750F4E92FF0E03E
:1002D000E059FC4F208130E09F5F90936F0302C094
:1002E0002FEF3FEFC901089580916E0390E02091B8
:1002F0006F03821B91090895089580E090E00895AE
:1003000085ED8093BC008091BC0084FDFCCF1092F1
:10031000B603089540913C03262F30E0240F311D91
:1003200021323105DCF42091B6032430C9F4FC01FC
:1003300080E090E0861758F430913C032191DC0175
:10034000A65EBC4FA30FB11D2C930196F3CF8091F5
:100350003C03680F60933C0380E0089581E00895BA
:1003600082E00895CF92DF92EF92FF920F931F9356
:10037000CF93DF937C01262F972F8A018091B703BB
:10038000882391F0C62FD72F6E01C40ED51ECC1531
:10039000DD0569F06991D701ED91FC910190F08143
:1003A000E02DC7011995F3CF642F822FB3DFC80169
:1003B000DF91CF911F910F91FF90EF90DF90CF9041
:1003C0000895CF93DF931F92CDB7DEB76983209155
:1003D000B7032223D1F02091D903203240F021E04D
:1003E00030E0FC013383228380E090E014C08091F0
:1003F000B803E82FF0E0E754FC4F998190838F5FBA
:100400008093B8038093D90304C061E0CE010196C4
:1004100081DF81E090E00F90DF91CF910895EF921E
:10042000FF920F931F93CF93DF93EC017B018A011F
:100430001B821A8288EE93E0A0E0B0E08C839D835B
:10044000AE83BF8388E592E0998388838DE190E055
:100450000E9456229A8F898F009779F02DE1F7013B
:10046000DC0101900D922A95E1F74CE050E0B801D3
:10047000CE010C960E949324188EDF91CF911F918C
:100480000F91FF90EF9008958EBD00000DB407FE10
:10049000FDCF8EB508958FEFF7CF0F931F93CF93B6
:1004A000DF93EB010E9495198B01F5DF8F3F49F037
:1004B0000E949519601B710B6C177D07B0F380E0EB
:1004C00001C081E0DF91CF911F910F9108950895B0
:1004D00061E0FC0184810E94D91780916103811140
:1004E000109261030895CF93DF93EC018E818823EE
:1004F00079F08F8198859C012F5F3F4F38872F833C
:100500008230924010F4C7DFF4CFCE01E1DF1E82CB
:10051000DF91CF9108958CBD9DBD0895CF93DF935A
:10052000EC0180916103811108C081E08093610337
:100530008091C4069091C506EEDF60E08C81DF916A
:10054000CF910C94D917CF92DF92FF920F931F9304
:10055000CF93DF9300D01F92CDB7DEB76C01F62E9C
:1005600029833A834B835C83BEDFC601D7DF6CE20D
:1005700071E0C60192DF8F2D806486DF08E110E014
:100580005C814B813A812981DA01C901002E04C0C6
:10059000B695A795979587950A94D2F729833A83BC
:1005A0004B835C8371DF0850110929813A814B81AB
:1005B0005C81083F8FEF180739F7FF2029F0E8E04A
:1005C000FE1204C087E803C085E901C08FEF5CDF3D
:1005D00010E061DFF601828787FF04C01F3F11F042
:1005E0001F5FF7CF0F900F900F900F90DF91CF917B
:1005F0001F910F91FF90DF90CF900895AF92BF921F
:10060000CF92DF92EF92FF920F931F93CF93DF93DE
:10061000EC016901C801820F931F8130924008F0FC
:100620006AC08E81882371F088819981AA81BB81FB
:10063000481759076A077B0729F48F819885C816E0
:10064000D90698F5488359836A837B838B858330E9
:1006500039F089E0440F551F661F771F8A95D1F73F
:100660009A01AB0161E1CE016EDF882319F083E0CE
:100670008D8341C00E9495195B010DDF8A878F3FF2
:1006800049F40E9495196A197B096D327140A8F3EB
:100690008FE003C08E3F29F08DE08D83CE0118DFFF
:1006A0002AC018861F8281E08E838F8198858C15E1
:1006B0009D0538F4F0DE8F819885019698878F83A9
:1006C000F4CF6701E00EF11ECE14DF0429F0E3DE63
:1006D000F60181936F01F8CF8F819885080F191F5C
:1006E00018870F838985882319F00115124038F087
:1006F000CE01F9DE04C0CE01EBDE80E001C081E076
:10070000DF91CF911F910F91FF90EF90DF90CF90ED
:10071000BF90AF900895EF92FF920F931F93CF93E6
:10072000DF93EC017901411551056105710511F463
:1007300082E134C08B85833039F089E0440F551F46
:10074000661F771F8A95D1F79A01AB0168E1CE0148
:10075000FADE882311F084E021C08EEF95DE870158
:100760008EEFF81AF80181918F018EDE0E151F05AC
:10077000C9F78FEF89DE8FEF87DE8DDE8A878F7175
:10078000853029F081E18D83CE01A2DE08C068E5C5
:1007900072E0CE0182DE811106C085E18D83CE013B
:1007A00097DE80E010C020E030E0A9016DE0CE01CE
:1007B000CADE811103C06FDE882311F084E1EECF21
:1007C000CE0186DE81E0DF91CF911F910F91FF90E6
:1007D000EF9008958091DC03882399F14091020203
:1007E0005091030260910402709105022DED33E0F7
:1007F0008091DA039091DB038EDF811102C080E0EB
:100800000895409162035091630360916403709175
:100810006503411551056105710589F02DED33E042
:100820008091DA039091DB0376DF882341F3109205
:100830006203109263031092640310926503109296
:10084000DC0381E008958F929F92AF92BF92EF9266
:10085000FF920F931F93CF934B015C01C42F8091A4
:10086000020290910302A0910402B0910502881542
:100870009905AA05BB05F1F0ADDF811102C080E04A
:100880001FC08DEDE82E83E0F82E00E012E020E09E
:1008900030E0B501A4018091DA039091DB03AEDE74
:1008A000882369F38092020290920302A0920402CC
:1008B000B09205028091DC03C82BC093DC0381E079
:1008C000CF911F910F91FF90EF90BF90AF909F90AD
:1008D0008F9008954F925F926F927F928F929F9226
:1008E000AF92BF92CF92DF92EF92FF920F931F933E
:1008F000CF93DF93EC016A017B012801390142307B
:1009000051056105710510F480E072C089859A85F2
:10091000AB85BC850196A11DB11D84179507A6075F
:10092000B70790F38B889C88AD88BE888F8980310B
:1009300029F4BB27AF2D9E2D8D2D09C0DB01CA01E7
:1009400047E0B695A795979587954A95D1F7880E74
:10095000991EAA1EBB1E8091020290910302A091D3
:100960000402B091050288169906AA06BB0679F41E
:100970008F89803199F4DD24EE24FF24C601880F8D
:10098000991FFC01E352FC4F5182408218C040E0A5
:10099000C501B40158DF8111EBCFB6CFE894C7F899
:1009A000DD24EE24FF24C601880F991F880F991FAC
:1009B000FC01E352FC4F408251826282738280913B
:1009C000DC0381608093DC038A89823080F08D8132
:1009D0009E81AF81B885880E991EAA1EBB1E80928B
:1009E000620390926303A0926403B092650381E076
:1009F000DF91CF911F910F91FF90EF90DF90CF90FB
:100A0000BF90AF909F908F907F906F905F904F902E
:100A100008958F929F92AF92BF92CF92DF92EF9202
:100A2000FF920F931F93CF93DF93FC0181859285F3
:100A3000A385B4850196A11DB11D84179507A6074E
:100A4000B70710F480E05BC083899489A589B689D3
:100A5000C789C03129F4852E962EA72EBB2409C044
:100A60004A015B01C7E0B694A79497948794CA950E
:100A7000D1F7E9016A017B018F01BC01CD01680D4D
:100A8000791D8A1D9B1D8090020290900302A09008
:100A90000402B0900502681579058A059B0599F452
:100AA000F80187898031A1F4B701A601552766278F
:100AB0007727440F551FFA01E352FC4F8081918143
:100AC000A0E0B0E017C040E0BEDE8111E9CFBACFB0
:100AD000B701A6014F77552766277727440F551F83
:100AE000440F551FFA01E352FC4F80819181A2818E
:100AF000B381BF7088839983AA83BB8381E0DF9130
:100B0000CF911F910F91FF90EF90DF90CF90BF900A
:100B1000AF909F908F9008954F925F926F927F92C7
:100B2000AF92BF92CF92DF92EF92FF920F931F93FB
:100B3000CF93DF9300D01F92CDB7DEB78C014983EE
:100B40005A836B837C835901C12CD12C7601412CB3
:100B500082E0582E612C712C49815A816B817C81F5
:100B60009E012F5F3F4FC80154DF882351F1D3010D
:100B7000C201F801058404C0880F991FAA1FBB1F7A
:100B80000A94D2F7C80ED91EEA1EFB1E49815A816B
:100B90006B817C818789803129F088EF9FEFAFEFEF
:100BA000BFE004C088EF9FEFA0E0B0E0481759070E
:100BB0006A077B0788F2F501C082D182E282F38264
:100BC00081E00F900F900F900F90DF91CF911F91C8
:100BD0000F91FF90EF90DF90CF90BF90AF907F90FC
:100BE0006F905F904F9008958F929F92AF92BF92B7
:100BF000CF92DF92EF92FF920F931F93CF93DF93E9
:100C0000EC018D81811102C080E076C00B891C89C6
:100C10002D893E890417150726073707A8F36A01AF
:100C20007B01823029F4CA86DB86EC86FD860DC006
:100C3000C114D104E104F10451F41E821F8218860C
:100C400019861A861B861C861D8681E055C08A84FB
:100C50009B84AC84BD84EB8DFC8D258530E0275FC3
:100C60003F4FB501A4014150510961097109022E9C
:100C700004C076956795579547950A94D2F7D701A2
:100C8000C6010197A109B10904C0B695A79597952A
:100C900087952A95D2F784179507A607B70720F0FE
:100CA00089288A288B2849F44F89588D698D7A8D37
:100CB0004E835F836887798704C0841B950BA60BDE
:100CC000B70B4C015D018E010A5F1F4F8114910427
:100CD000A104B10409F4A7CF4E815F8168857985AD
:100CE00098018B8D9C8D95DE91E0891A9108A10861
:100CF000B1088111EBCF88CFDF91CF911F910F9178
:100D0000FF90EF90DF90CF90BF90AF909F908F902B
:100D100008953F924F925F926F927F928F929F922F
:100D2000AF92BF92CF92DF92EF92FF920F931F93F9
:100D3000CF93DF93CDB7DEB72C970FB6F894DEBF15
:100D40000FBECDBF5C01DC015B968D909C905C97E3
:100D50001696CD90DD90ED90FC901997C114D104BA
:100D6000E104F10439F0BFEFCB1ADB0AEB0AFB0A0E
:100D7000312C07C0F401C080D180E280F38033249D
:100D80003394F40181859285A385B4859C01AD01DE
:100D90002F5F3F4F4F4F5F4F29873A874B875C87C5
:100DA000260137011D821E821F821886F40181856B
:100DB0009285A385B4852D813E814F815885281762
:100DC00039074A075B0708F060C089859A85AB85BB
:100DD000BC858C159D05AE05BF0550F482E0C82E7C
:100DE000D12CE12CF12C92E0492E512C612C712C4C
:100DF0009E012F5F3F4FB701A601C4010ADE882381
:100E000009F443C089819A81AB81BC81892B8A2BEB
:100E10008B2B41F0260137019FEF491A590A690AC5
:100E2000790A05C0C414D504E604F70491F02D81B5
:100E30003E814F8158852F5F3F4F4F4F5F4F2D832E
:100E40003E834F8358873FEFC31AD30AE30AF30A5E
:100E5000ADCF0FEF1FEF2FEF3FE0B301A201C401B1
:100E600039DD882391F0D50116964D915D916D91F4
:100E70007C911997411551056105710541F0930168
:100E80008201C40127DD811102C080E02AC0D501A2
:100E900016964D925D926D927C921997332051F087
:100EA000D301C2010196A11DB11DF401808391837C
:100EB000A283B383F5018789908DA18DB28D892B93
:100EC0008A2B8B2B69F4D50157964D925D926D92CA
:100ED0007C925A9714968C911497806814968C93F0
:100EE00081E02C960FB6F894DEBF0FBECDBFDF9128
:100EF000CF911F910F91FF90EF90DF90CF90BF9017
:100F0000AF909F908F907F906F905F904F903F90A9
:100F100008952F923F924F925F926F927F928F929D
:100F20009F92AF92BF92CF92DF92EF92FF920F9378
:100F30001F93CF93DF931F921F92CDB7DEB7FC01B3
:100F40008581882309F4D6C0848180FFD3C021E045
:100F50002A83438954896589768982859385A48506
:100F6000B585481759076A077B0709F41A826F018C
:100F70003A81832F90E0DE0111964D013F01B6E0EA
:100F80006B0E711C892B09F47CC0D6011A964D9109
:100F90005D916D917C911D975A01B1E0BB22F601E4
:100FA00025811A012B0189E05694479437942794A0
:100FB0008A95D1F7838D948D223061F4FC01828D66
:100FC000938DA48DB58DBC01CD01620D731D841D63
:100FD000951D44C0DC0114961C9111501221A114DE
:100FE000B104C9F4111117C0452B462B472B51F4FE
:100FF000F6018789908DA18DB28D86839783A08716
:10100000B18709C04681578160857185930101DDF3
:10101000882309F46FC0F601238D348D8681978172
:10102000A085B1850297A109B109AC01BD01F90103
:10103000058404C0440F551F661F771F0A94D2F71A
:1010400086859785A089B189840F951FA61FB71F34
:10105000BC01CD01610F711D811D911DD60114963A
:101060002C9126FF14C000910202109103022091DE
:10107000040230910502601771078207930749F552
:1010800006C0FA81FF23B1F1898190E035C040E0CC
:10109000DADB882379F1F501E352FC4FD401CF016B
:1010A0000196E817F90719F021912D93FACFEFEF88
:1010B0008E1A9E0AF60182859385A485B5850196D0
:1010C000A11DB11D82879387A487B58780E090E03A
:1010D00059CF740101E010E09501AB01BC01809192
:1010E000DA039091DB038ADA882321F0BFEF8B1AB1
:1010F0009B0AE0CF8FEF9FEF0F900F90DF91CF9182
:101100001F910F91FF90EF90DF90CF90BF90AF9025
:101110009F908F907F906F905F904F903F902F9017
:101120000895CF93DF93EC018D81882391F18C8119
:1011300087FF2CC06E857F858889998941E083DB94
:10114000882339F1EA8980E2E89FF0011124DF0168
:10115000A352BC4F1097E9F08D81823050F44B8937
:101160005C896D897E895C964D935D936D937C93CC
:101170005F978F89988DA98DBA8DE352FC4F938F1D
:10118000828FB58BA48B8C818F778C83DF91CF91ED
:1011900021CB80E0DF91CF910895CF93DF93EC01D5
:1011A000C0DF882311F01D8281E0DF91CF91089587
:1011B0002F923F924F925F926F927F928F929F9267
:1011C000AF92BF92CF92DF92EF92FF920F931F9355
:1011D000CF93DF9300D01F92CDB7DEB78C015B01B8
:1011E0001A01DC0115968C9115978130C1F4149683
:1011F0008C9181FF14C082FF1AC0F8014389548981
:101200006589768982859385A485B5858417950738
:10121000A607B70761F0C801E7DC811108C081E0CB
:1012200090E0F8019383828380E090E033C1610114
:1012300082C0D8015B968D919C915C97FC012481C2
:1012400021502A013B0139E07694679457944794E2
:101250003A95D1F7722E74207A01F1E0FF227720BF
:1012600009F475C080E092E08E199F0946018C1543
:101270009D0508F44C01D8015B962D913C915C973B
:1012800016968D919D910D90BC91A02D0297A1096C
:10129000B109F901058404C0880F991FAA1FBB1F5B
:1012A0000A94D2F74685578560897189840F951F06
:1012B000A61FB71F9C01AD01270D311D411D511DFA
:1012C00029013A01811432E0930609F085C080912A
:1012D000020290910302A0910402B09105028415CC
:1012E0009505A605B70559F48FEF9FEFDC018093B4
:1012F000020290930302A0930402B09305029501A9
:10130000B301A2018091DA039091DB0304DA882310
:1013100009F485CF9EEFB91AC818D908F80182855B
:101320009385A485B585880D991DA11DB11D828762
:101330009387A487B587D8011A964D915D916D91D9
:101340007C911D97C114D10409F073CF83C0E114BF
:10135000F10409F087CF16964D915D916D917C91C6
:101360001997411551056105710559F457968D91ED
:101370009D910D90BC91A02D0097A105B10531F56F
:1013800020C09E012F5F3F4F44DB882309F44DCFDF
:1013900089819A81AB81BC81F801238D348DF9015B
:1013A0002789203129F048EF5FEF6FEF7FE004C01D
:1013B00048EF5FEF60E070E084179507A607B70776
:1013C00028F0C801A6DC81114DCF29CFF801868312
:1013D0009783A087B18746CFE114F10421F5D801A6
:1013E0001A964D915D916D917C911D9753968D91BB
:1013F0009D910D90BC91A02D481759076A077B0756
:1014000090F0E8D9882309F40ACF40920202509262
:10141000030260920402709205028091DC038160F5
:101420008093DC0307C041E0C301B2010CDA8823DA
:1014300009F4F5CED501F701E352FC4FCF01880D39
:10144000991DE817F90719F02D912193FACFA80CEF
:10145000B91C62CF53968D919D910D90BC91A02D9A
:1014600084179507A607B70740F4F801438B548B00
:10147000658B768B848180688483D80114968C91E7
:1014800083FD02C0C10106C0C8014BDE882309F4F8
:10149000C6CEF8CF0F900F900F900F90DF91CF91A5
:1014A0001F910F91FF90EF90DF90CF90BF90AF9082
:1014B0009F908F907F906F905F904F903F902F9074
:1014C0000895CF93DF931F92CDB7DEB7698341E0D4
:1014D00050E0BE016F5F7F4F6BDE0F90DF91CF91C9
:1014E00008951F920F920FB60F9211240BB60F9210
:1014F0002F933F934F935F936F937F938F939F931C
:10150000AF93BF93EF93FF938091B900887F8036AC
:1015100009F49CC068F5883209F45BC090F480310E
:1015200009F454C038F4882309F4F6C0883009F46B
:101530004DC0F6C0883109F44CC0803209F45DC05A
:10154000EFC0803409F468C048F4803309F455C012
:10155000883309F0E5C08093B403D8C0803509F41E
:101560004FC0883509F45DC0883409F0D9C0D6C0B1
:10157000883909F4C7C0A8F4883709F467C038F47B
:10158000883609F463C0803709F460C0C9C0883860
:1015900009F4B8C0803909F45FC0803809F0C0C0D0
:1015A0005BC0803B09F486C038F4803A09F466C019
:1015B000883A09F47FC0B4C0803C09F4A7C0883CD5
:1015C00009F4A4C0883B09F48AC0AAC080919103A1
:1015D00010C09091B3038091B203981770F5E09119
:1015E000B30381E08E0F8093B303F0E0EE56FC4F1F
:1015F00080818093BB0085EC86C08093B4038EC04D
:10160000E091B30381E08E0F8093B3038091BB0020
:10161000F0E0EE56FC4F80839091B3038091B203CB
:101620006EC0E091B30381E08E0F8093B30380918D
:10163000BB00F0E0EE56FC4F80838091B503811132
:101640006DC081E08093900384EA61C083E0809361
:10165000B60310926003CFCF80916003803208F010
:1016600051C0E091600381E08E0F80936003809110
:10167000BB00F0E0E05CFC4F8083BDCF85EC809345
:10168000BC001092B60380916003803230F4E09188
:101690006003F0E0E05CFC4F10826091600370E05A
:1016A000E0913E03F0913F0380E493E0199510929E
:1016B000600336C084E08093B60310923D0310921D
:1016C0003C03E0913A03F0913B03199580913C0370
:1016D000811105C081E080933C0310921A03E091D0
:1016E0003D0381E08E0F80933D03F0E0E65EFC4F0A
:1016F00080818093BB0090913D0380913C039817BB
:1017000008F479CF85E88093BC000AC085EC80930B
:10171000BC001092B60304C01092B4030E94800172
:10172000FF91EF91BF91AF919F918F917F916F91B9
:101730005F914F913F912F910F900BBE0F900FBE75
:101740000F901F9018950F931F938095853560F427
:10175000682F660F860F282F209590E0A0E0B0E05C
:10176000BC01CD01822B21C08A3A80F48555982F87
:10177000990F980F692F6095462F50E060E070E058
:101780008A019B01192BC901B8010FC08A5A682F21
:10179000660F860F282F209590E0A0E0B0E0DC01D6
:1017A00099278827BC01CD01722B1F910F910895B5
:1017B0000E94D1212FEF30E040E050E00E94DD2177
:1017C000862FC1DF6093FA077093FB078093FC07B5
:1017D0009093FD070895CF92DF92EF92FF920F93BF
:1017E0001F93CF93DF936C017A018B01C0E0D0E0AF
:1017F000CE15DF0589F0D8016D918D01D601ED91EF
:10180000FC910190F081E02DC6011995892B11F40E
:101810007E0102C02196ECCFC701DF91CF911F91CD
:101820000F91FF90EF90DF90CF90089521E001C0DD
:10183000220F6A95EAF7DC011C962C931C971A96E6
:101840005C934E931997ED91FC910484F585E02DFE
:1018500060E01994DC01ED91FC910684F785E02DA0
:1018600041E0199581E090E0089508950895FC0104
:10187000538D448D252F30E0842F90E0821B930BF5
:10188000541710F0CF96089501970895FC01918D9B
:10189000828D981761F0828DDF01A80FB11D5D96D2
:1018A0008C91928D9F5F9F73928F90E008958FEF40
:1018B0009FEF0895FC01918D828D981731F0828DF4
:1018C000E80FF11D858D90E008958FEF9FEF08954B
:1018D000FC01918D228D892F90E0805C9F4F821BAF
:1018E00091098F73992708958EED95E0F1DF21E03E
:1018F000892B09F420E0822F0895FC01848DDF01FB
:10190000A80FB11DA35ABF4F2C91848D90E0019672
:101910008F739927848FA689B7892C93A089B18961
:101920008C9180648C93938D848D981306C002886B
:10193000F389E02D80818F7D80830895EF92FF925F
:101940000F931F93CF93DF93EC0181E0888F9B8DE2
:101950008C8D981305C0E889F989808185FD23C0A5
:10196000F62E0B8D10E00F5F1F4F0F731127E02E27
:101970008C8DE8120BC00FB607FCFACFE889F98905
:10198000808185FFF5CFCE01B8DFF2CF8B8DFE01D0
:10199000E80FF11DE35AFF4FF0820B8FEA89FB89B4
:1019A0008081806207C0EE89FF896083E889F989B8
:1019B00080818064808381E090E0DF91CF911F91EE
:1019C0000F91FF90EF900895CF93DF93EC01888DF6
:1019D0008823C1F0EA89FB89808185FD05C0A8893B
:1019E000B9898C9186FD0EC00FB607FCF5CF8081BA
:1019F00085FFF2CFA889B9898C9185FFEDCFCE0103
:101A00007CDFE8CFDF91CF91089580E090E0892BD3
:101A100019F06ADF811125C080E090E0892B41F048
:101A200080E090E0892B21F00E94000081111CC011
:101A300080E090E0892B41F080E090E0892B21F05C
:101A40000E940000811113C080E090E0892BA1F07A
:101A500080E090E0892B81F00E94000081110AC093
:101A600008950E940000D8CF0E940000E1CF0E949C
:101A70000000EACF0C9400000895DC015996ED9126
:101A8000FC915A973097B9F083899489A589B689D2
:101A90004285538564857585841B950BA60BB70B12
:101AA000811520E89207A105B10538F08FEF9FE777
:101AB000A0E0B0E0089580E090E00895CF93DF9338
:101AC0001F92CDB7DEB76983DC01ED91FC910280F6
:101AD000F381E02D41E050E0BE016F5F7F4F19952B
:101AE0000F90DF91CF9108950E946724EF92FF92AB
:101AF0000F931F93CF938C01FC01759684E0C0E097
:101B000060FF02C09081C92B66958150319681118A
:101B1000F7CF413011F4F8014489F8018585C82BCD
:101B2000C42B7801FEE0EF0EF11CF80162896C2BEA
:101B3000C7010E945B17F801628960956C23C70199
:101B4000CF911F910F91FF90EF900C945B170F9323
:101B50001F93CF93DF93062F0F70423019F440E0AC
:101B6000602F0FC0142F262FEC0130E0B90184E064
:101B7000759567958A95E1F7CE01B8DF412F602F03
:101B8000CE01DF91CF911F910F91B0CFFC018485E1
:101B90008823A9F0218532852115310519F46111B9
:101BA00006C007C02130310521F4611102C08587CC
:101BB00001C015866585CF010E960C945B170895BC
:101BC000FC01818D928D009709F0ABCA0895FC014C
:101BD000818D928D009709F09CC98FEF9FEF08953A
:101BE0000F931F93CF93DF93FC01818D928D00970C
:101BF000B1F0EF018ED98C010F3F8FEF180791F0F4
:101C0000898D9A8DFC014285538564857585415087
:101C10005109610971090E94F405C80105C080E0FD
:101C200090E002C08FEF9FEFDF91CF911F910F9156
:101C30000895CF93DF93EC01898D9A8D009739F445
:101C400081E090E09B838A8380E090E00AC0FC0101
:101C500013821282ADDAE98DFA8D22813381232B32
:101C600079F7DF91CF9108950F931F93CF93DF936F
:101C7000EC0188819981009729F02A813B81261700
:101C8000370788F48B016F5F7F4F0E948323009793
:101C900061F0998388831B830A832C813D81232BE8
:101CA00011F4FC01108281E001C080E0DF91CF914E
:101CB0001F910F910895CF93DF93EC018881998153
:101CC000009711F00E94EB22198218821D821C825B
:101CD0001B821A82DF91CF910895EF92FF920F93AA
:101CE0001F93CF93DF93EC01FB0186179707A9F0B1
:101CF000008111810115110531F0E480F580B701F3
:101D0000B3DF811103C0CE01D6DF07C0FD82EC82B4
:101D1000B801888199810E948C24CE01DF91CF91F6
:101D20001F910F91FF90EF900895DC01ED91FC91D0
:101D30000684F785E02D40E0199461E0F6DF8BE33F
:101D40009FE10197F1F708950F931F93CF93DF93CE
:101D5000EC01423018F08C8188608C834F83688757
:101D6000222329F0413019F48C8184608C8364E64D
:101D700070E080E090E00E945D196C8164FD31C0EC
:101D8000E881F9810684F785E02D42E063E0CE0129
:101D900019950BE416E4C8010197F1F7E881F98180
:101DA0000684F785E02D42E063E0CE011995C80175
:101DB0000197F1F7E881F9810684F785E02D42E08B
:101DC00063E0CE01199583E592E00197F1F7E88190
:101DD000F9810684F785E02D42E062E0CE01199595
:101DE00013C06062CE01A1DF8BE496E40197F1F7A6
:101DF0006C816062CE0199DF83E592E00197F1F793
:101E00006C816062CE0191DF6C816062CE018DDFFA
:101E100084E08D836CE0CE0188DFCE018EDF82E02E
:101E20008E8366E0CE0181DFE881F9810484F58547
:101E3000E02D6FEFCE01DF91CF911F910F9119949B
:101E4000FF920F931F93CF93DF93EC01162F042F74
:101E5000F22E8B85888B10926F0310926E03109276
:101E6000B8031092D9031092B60381E08093B503B2
:101E70001092900361E084E10E94D91761E085E14E
:101E80000E94D9178091B9008E7F8093B90080910C
:101E9000B9008D7F8093B90088E48093B80085E411
:101EA0008093BC0088899091B6039111FCCF91E09A
:101EB0009093B6039093B5032FEF2093B403109241
:101EC000B3031092B2039093910390919103880F02
:101ED000892B8093910380919003813061F410925B
:101EE0009003809191038093BB008091BC0083FD9F
:101EF000F8CF85EC01C085EE8093BC008091B603DD
:101F00008130E1F38091B303811103C08091B30369
:101F100001C081E0A2E9B3E020E733E0F9019E2FA0
:101F2000921B981718F49D919193F9CF10926F031B
:101F300080936E0391E0811101C090E0998B86EC53
:101F400096E00E9460018E878989882331F01F8680
:101F50001C8260E0CE010E96AED72F2D402F612F50
:101F6000CE01DF91CF911F910F91FF90EDCE1F9287
:101F70000F920FB60F9211240BB60F922F933F932F
:101F80004F935F936F937F938F939F93AF93BF9381
:101F9000EF93FF938EED95E0B0DCFF91EF91BF9151
:101FA000AF919F918F917F916F915F914F913F91F1
:101FB0002F910F900BBE0F900FBE0F901F90189592
:101FC0001F920F920FB60F9211240BB60F922F9300
:101FD0008F939F93EF93FF93E091EE05F091EF05C0
:101FE0008081E091F405F091F50582FD12C09081A9
:101FF0008091F7058F5F8F732091F805821751F05C
:10200000E091F705F0E0E252FA4F958F8093F705E3
:1020100001C08081FF91EF919F918F912F910F903F
:102020000BBE0F900FBE0F901F901895CF92DF92AE
:10203000EF92FF920F931F93CF93DF93CDB7DEB74D
:1020400029970FB6F894DEBF0FBECDBF8C01DC011F
:1020500018968D919C911997892B09F4A3C00E9421
:102060003819F801C684D784E088F188DC01CB01F7
:102070008C199D09AE09BF098C329140A105B105AB
:1020800070F3F894D80114968D919C9115979A83CA
:1020900089831896ED91FC9119977F01BFEFEB1A98
:1020A000FB0A80818987F80190810288F389E02DFD
:1020B000D80154968C91992309F430C09081982BC3
:1020C00098879081809589238F838F818C8388E086
:1020D0008B8358856F8149853B812C8189819A81C9
:1020E000D701508347FD252F3A952083262F39F0BD
:1020F000441F00C000006083000000C0F2CF38E041
:102100004D9160830000019761F7D8015396FC93CD
:10211000EE93529749873B832C833AC09081982B4A
:1021200098879081809589238F838F818E8388E023
:102130008D8358856F8149853D812E8189819A8162
:10214000D701508347FD252F00C000C0208300C069
:1021500000C000C000C000C060830000262F3A9578
:1021600041F0441F000000C000C000C000C000C01B
:10217000E8CF38E04D9100C0608300C0019709F7B7
:10218000D8015396FC93EE93529749873D832E8353
:102190009A83898378940E943819F8016687778733
:1021A000808B918B29960FB6F894DEBF0FBECDBF02
:1021B000DF91CF911F910F91FF90EF90DF90CF9023
:1021C00008951F920F920FB60F9211240BB60F9223
:1021D0002F933F934F935F936F937F938F939F932F
:1021E000AF93BF93CF93DF93EF93FF932091D306E9
:1021F00030E0F901EE5DFE4F8491F901E858FE4FA1
:10220000D491F901E852FE4FC491CC2399F0811189
:102210009DD7EC2FF0E0EE0FFF1FE85FFE4FA5917A
:10222000B491EC91ED2331E020E009F430E0832F0C
:10223000922F02C080E090E02091D7063091D8061E
:102240002F5F3F4F3093D8062093D7062091D606B4
:10225000253618F026E02093D2062091D2062430AD
:10226000D9F128F4223069F02330D9F060C025304C
:1022700009F453C0263009F05AC021E02093A30787
:1022800053C0009709F053C02091D7063091D8066B
:102290002436310508F443C01092A3071092D606E5
:1022A0001DC08130910509F042C0E091D60621E0C1
:1022B0002E0F2093D606F0E02091D7063091D80655
:1022C000EE0FFF1FEE52F94F308727831092D8068A
:1022D0001092D70624E029C00097B9F4E091D60601
:1022E00021E02E0F2093D606F0E02091D706309102
:1022F000D806EE0FFF1FEE52F94F3087278310925A
:10230000D8061092D70623E010C02091D70630914E
:10231000D8062536310558F007C0009741F41092D1
:10232000D8061092D70603C025E02093D20620914C
:10233000D5062223B1F0892B51F48091D40688234D
:1023400021F08091D40661E009C02F9A0AC08091E3
:10235000D406882329F08091D40660E02AD601C0F3
:102360002F98FF91EF91DF91CF91BF91AF919F9106
:102370008F917F916F915F914F913F912F910F902E
:102380000BBE0F900FBE0F901F901895CF93DF9349
:10239000EC016A8B8091020290910302A0910402E9
:1023A000B09105028E879F87A88BB98B80E2689FCA
:1023B000F0011124E352FC4F4489558960E070E03C
:1023C000BA01552744274F8B588F698F7A8F828D9A
:1023D000938DA0E0B0E0482B592B6A2B7B2B4F8BC1
:1023E000588F698F7A8F8385887151F4848D958D8C
:1023F000A68DB78D8B8B9C8BAD8BBE8B81E00EC079
:10240000803111F080E015C09E012D5E3F4F8B8D15
:102410009C8D0E948C058823A9F384E08D8381E044
:102420008C831E821F82188619861A861B861C863C
:102430001D86DF91CF9108952F923F924F925F9228
:102440006F927F928F929F92AF92BF92CF92DF92C4
:10245000EF92FF920F931F93CF93DF9300D01F92C1
:10246000CDB7DEB762D76093F6077093F707809316
:10247000F8079093F9078091EE079091EF0783306A
:10248000910509F45DC05CF481309105A1F00297DB
:1024900009F044C2E12CF12C03E010E040C085308B
:1024A000910509F4A5C10CF459C0069709F036C28C
:1024B00000E010E024C200E010E0E12CF12C60917B
:1024C000DB077091DC07E616F70608F0F3C1C801D8
:1024D0000E943A2280910408860F35D9AB01BC01D5
:1024E000C701C9D52FEFE21AF20A1395E8CF809100
:1024F0000408909105088E0D9F1DB8010E943A2294
:10250000892BA9F44091FA075091FB076091FC07D1
:102510007091FD07C701AFD53FEFE31AF30A809131
:10252000DB079091DC07E816F90608F3C3C1409178
:10253000FE075091FF076091000870910108EACFF3
:102540004091FA075091FB076091FC077091FD07DD
:1025500080910408909105088ED5ACC1C12CD12C76
:10256000E12CF12C00E010E08091DB079091DC077A
:102570000817190708F09EC120910408309105083A
:102580000217130749F08091020890910308821BFB
:10259000930B0817190749F44091FA075091FB076C
:1025A0006091FC077091FD0718C12091E60720900B
:1025B000E3074091E1075091E2078090E007822F06
:1025C00090E0A091E407A983B091E507BA832211B6
:1025D00060C01A012C0C3D1C882009F442C0912CCB
:1025E000A12CB12CF101E80FF91F608170E0762F6A
:1025F0006627072E000C880B990BA50194010E94F9
:102600000922390155244424F1012981E20FF11DE9
:10261000608170E0762F6627072E000C880B990BDF
:10262000A50194010E940922B42FA32F922F88277D
:10263000482A592A6A2A7B2AD1013A81A30FB11D5F
:102640006C9170E0762F6627072E000C880B990B93
:10265000A50194010E940922422A532A642A752A5C
:1026600096C0F101E80FF91F8081F1019981E90F0E
:10267000F11D4080512C612C712C762C652C542C32
:102680004424682AD101EA81AE0FB11D8C91482AF9
:102690007EC09A012E0D3F1D3C832B83312C882058
:1026A00009F45CC0912CA12CB12CF901E80FF91FA1
:1026B000608170E0762F6627072E000C880B990B3F
:1026C000A50194010E940922722E662455244424F7
:1026D000EB81FC81E20DF31D608170E0762F6627AF
:1026E000072E000C880B990BA50194010E9409226A
:1026F000D90199278827482A592A6A2A7B2AEB81F7
:10270000FC813A81E30FF11D608170E0762F66272E
:10271000072E000C880B990BA50194010E94092239
:10272000422A532A642A752AAB81BC818981A80F69
:10273000B11D6C9170E0762F6627072E000C880B78
:10274000990BA50194010E940922B42FA32F922F67
:102750008827482A592A6A2A7B2A19C0EB81FC81DA
:10276000E20DF31D4080512C612C712C3201552457
:102770004424EB81FC819A81E90FF11D8081482A74
:10278000AB81BC81E981AE0FB11D8C91582A462DD9
:1027900050E055954795052E000C660B770BBA0156
:1027A00055274427852D90E095958795092E000C97
:1027B000AA0BBB0BBA2FA92F982F8827482B592B70
:1027C0006A2B7B2B512C55944794052C000C6608E2
:1027D00077084429552966297729C8014CD40F5F09
:1027E0001F4FF4E0EF0EF11C23E0C20ED11CBCCE53
:1027F0004091FA07F090FB075091FC0720910208E6
:1028000030910308E0910408F09105085901AE1ACF
:10281000BF0A1091FE07E090FF07809100088E9F8D
:10282000B0018F9F700D11245A9DC0015B9D900DCA
:102830001124860F971FB9010E943A22062FEE9E9F
:10284000B001EF9E700D1124FA9CC001FB9C900D0D
:102850001124860F971FB9010E943A22C62ED12C4F
:10286000E12CF12CFE2CED2CDC2CCC24E02A1E9F3C
:10287000B0011F9F700D11244A9DC0014B9D900D0A
:102880001124860F971FB9010E943A22C62A00E040
:1028900010E08091DB079091DC070817190738F4E6
:1028A000B701A601C801E7D30F5F1F4FF2CF89ED33
:1028B00097E0BCDB89ED97E0B9DB0F900F900F90AC
:1028C0000F90DF91CF911F910F91FF90EF90DF90CC
:1028D000CF90BF90AF909F908F907F906F905F90C0
:1028E0004F903F902F9094C340E050E0BA01C80150
:1028F000C2D30F5F1F4F011531E01307D9F2F80162
:10290000E752F84F85A5813079F74091FA07509149
:10291000FB076091FC077091FD07E9CF0F900F90C6
:102920000F900F90DF91CF911F910F91FF90EF903B
:10293000DF90CF90BF90AF909F908F907F906F90DF
:102940005F904F903F902F900895009769F0FC01A1
:1029500001900020E9F73197AF01481B590BBC01EA
:1029600085EA97E00C94EB0B80E090E00895EDCFC2
:10297000CF93DF93CDB7DEB728970FB6F894DEBFBD
:102980000FBECDBF1D8290E49E8324E12F8324E5FA
:10299000288719829A8390E19B8390E59C832091FC
:1029A000AC07821710F08FEF820F3091AD0790E0E7
:1029B000FE01E80FF91F303121F4243011F4618158
:1029C00001C06581606885EA97E028960FB6F894A3
:1029D000DEBF0FBECDBFDF91CF91A7C9AF92BF922F
:1029E000CF92DF92EF92FF920F931F93CF93DF93DB
:1029F000CDB7DEB72B970FB6F894DEBF0FBECDBFB5
:102A00007C01FC0185818111C1C0CE0101966C0160
:102A1000FC0190E28BE08C0D91938E13FDCFDA01D7
:102A200020E037E09D91992339F19E3219F0E8E6D4
:102A3000F1E00AC03A3009F4A9C028E03AE0F2CF48
:102A40003196891709F4A2C084918111F9CF321708
:102A500008F49CC08FED890F8E3508F097C081E097
:102A6000820FF601E20FF11D2FE9290F2A3108F438
:102A700090529083282FD6CF8981803209F486C066
:102A80008B01FB01838D948DF701948F838FFB0164
:102A90001682178210861186128613861486158672
:102AA000A12CF80182859385A485B5854389548935
:102AB0006589768984179507A607B70708F066C069
:102AC00025E0B695A795979587952A95D1F7F82F84
:102AD000FF70BF2EF8018581823008F457C0C8010D
:102AE0000E94890797FD52C0F80182859385A485CD
:102AF000B5854F96A11DB11D82879387A487B587A1
:102B0000F0E2BF9EC0011124BC0163527C4F6115ED
:102B10007105E1F1FB0120812223B1F1253ED9F0BD
:102B20004BE050E0C6010E946B24892B09F0B9CF1D
:102B30006B2DC7012B960FB6F894DEBF0FBECDBF2D
:102B4000DF91CF911F910F91FF90EF90DF90CF9089
:102B5000BF90AF901BCCA11014C0F701B28A409176
:102B600002025091030260910402709105024687AF
:102B70005787608B718BFC01E352FC4F8081882367
:102B800029F0AA24A3948DCFAA2039F380E02B96B4
:102B90000FB6F894DEBF0FBECDBFDF91CF911F916E
:102BA0000F91FF90EF90DF90CF90BF90AF9008957E
:102BB000CF93DF93FC012581222311F080E049C0EF
:102BC000EC0180919E068031C1F482E08583178AF2
:102BD000108E118E128E80919F069091A006A0E01B
:102BE000B0E025E0880F991FAA1FBB1F2A95D1F7D7
:102BF000838B948BA58BB68B19C08032F9F683E05A
:102C000085834091A1065091A2066091A306709120
:102C1000A406478B508F618F728F9F012D5E3F4FAF
:102C200087E896E00E948C05882341F287E896E0C9
:102C30009C8F8B8F81E08C831E821F821886198661
:102C40001A861B861C861D861E861F86188A198A70
:102C50001A8ADF91CF9108958F929F92AF92BF927F
:102C6000CF92DF92EF92FF92CF93DF93C82F8BE743
:102C700096E09093DB038093DA03CC2369F1C530AF
:102C800010F080E00DC140E060E070E0CB010E94F8
:102C900023048823B1F320E1C29FC0011124835390
:102CA0009C4FFC01E254FE4F20812F7751F73C9658
:102CB00040815181628173814436510561057105FE
:102CC00000F33497C080D180E280F380C114D10436
:102CD000E104F10421F4D5CFC12CD12C760140E0E0
:102CE000C701B6010E942304882359F28091E803AA
:102CF0009091E9038115924021F6A091ED03AA235A
:102D000009F4BFCF6091EB037091EC03611571057D
:102D100009F4B7CF2091EA03222309F4B2CFA0939C
:102D2000990620938B0680E030E0E1E0F0E0C82FC8
:102D3000AF01082E02C0440F551F0A94E2F7241772
:102D4000350741F0982F8F5F983089F789E080939D
:102D5000940697CF809394062091F3033091F40367
:102D60002115310519F040E050E008C02091010420
:102D700030910204409103045091040420938C0686
:102D800030938D0640938E0650938F06460157016F
:102D9000860E971EA11CB11C80929A0690929B06EB
:102DA000A0929C06B0929D06E091EE03F091EF0395
:102DB000F093A006E0939F06B0E00E94F921860EF2
:102DC000971EA81EB91E8092A1069092A206A092FC
:102DD000A306B092A40685E0EE0FFF1F8A95E1F7E7
:102DE000E150FE4FEF2FFF27E6958E0E9F1EA11C90
:102DF000B11C8092950690929606A0929706B0928A
:102E000098062091F0033091F1032115310521F04E
:102E1000A90160E070E008C04091FD035091FE03FD
:102E20006091FF0370910004D701C60188199909C8
:102E3000AA09BB09840F951FA61FB71F04C0B6952A
:102E4000A79597958795CA95D2F78093900690930A
:102E50009106A0939206B0939306853F2FE09207C8
:102E6000A105B10510F48CE018C0853F9F4FA10566
:102E7000B10510F480E111C08091090490910A0419
:102E8000A0910B04B0910C048093A1069093A2062C
:102E9000A093A306B093A40680E280939E0681E0EF
:102EA000DF91CF91FF90EF90DF90CF90BF90AF90E8
:102EB0009F908F900895CF93FC012381222309F4E2
:102EC0006EC09181909569236083C28181E0809377
:102ED000B703C093DD051092B8031092D90386ECB6
:102EE00096E00E94E1018091D903813208F04AC046
:102EF0002091B6032111FCCF92E09093B60391E0AC
:102F00009093B5039FEF9093B4031092B303809313
:102F1000B203A9EBB3E042E953E0FA019E2F941B00
:102F2000981718F49D919193F9CF10929103809185
:102F30009103CC0FC82BC0939103809190038130F3
:102F400061F410929003809191038093BB00809173
:102F5000BC0083FDF8CF85EC01C085EE8093BC00FA
:102F60008091B6038230E1F38091B4038F3F79F012
:102F70008091B403803241F08091B403803331F00A
:102F800024E005C021E003C022E001C023E010924C
:102F9000B8031092D9031092B70330E002C020E0CA
:102FA00030E081E090E0232B11F080E090E0CF91C1
:102FB00008951F93CF93DF93282F30E0F901EE5D42
:102FC000FE4F8491F901E858FE4FD491F901E8527F
:102FD000FE4FC491CC23C1F0162F8111B7D0EC2F36
:102FE000F0E0EE0FFF1FE254FE4FA591B4918FB7B2
:102FF000F894111105C09C91ED2FE095E92302C0D2
:10300000EC91ED2BEC938FBFDF91CF911F91089541
:103010002091F0073091F107809104089091050804
:10302000232B89F40196909305088093040820913E
:1030300002083091030882179307E0F01092050808
:103040001092040810C0019790930508809304081B
:10305000892B81F480910208909103080197909345
:10306000050880930408E0910609F091070930975C
:1030700009F0199408958F929F92AF92BF92CF92C8
:10308000DF92EF92FF922091DB073091DC078217ED
:10309000930708F052C04B01AA24BB24E82DC52E8B
:1030A000D62EE72EFF24FC2D342F2091E00722237B
:1030B00061F0829E40011124E92DC29E600111241D
:1030C000FD2D429FD00111243B2FF090E607E090A8
:1030D000E307A091E107B091E207FE1008C0AC0140
:1030E000440F551F840F951F8A0F9B1F14C0880F14
:1030F000991F880F991F8A0F9B1F472F55276627F7
:103100007727DC01AF0DB11D222321F0429FA001E2
:103110001124452F4C932091E307DC01A20FB11D30
:10312000EC932091E407DC01A20FB11DFC932091E8
:10313000E507FC01E20FF11D3083FF90EF90DF9077
:10314000CF90BF90AF909F908F90089590E0FC013A
:103150003197E231F10508F04EC08827EE58FF4F55
:103160008F4F0C944E22809180008F7703C0809106
:1031700080008F7D80938000089580918000877FFC
:10318000F9CF84B58F7702C084B58F7D84BD089553
:103190008091B0008F7703C08091B0008F7D8093C5
:1031A000B0000895809190008F7707C080919000C3
:1031B0008F7D03C080919000877F80939000089559
:1031C0008091A0008F7707C08091A0008F7D03C001
:1031D0008091A000877F8093A000089580912001B6
:1031E0008F7707C0809120018F7D03C080912001DF
:1031F000877F809320010895CF93DF9390E0FC01B7
:10320000E858FE4F2491FC01E852FE4F8491882338
:1032100061F190E0880F991FFC01E25EFD4FC591BE
:10322000D491FC01E254FE4FA591B491611109C003
:103230009FB7F8948881209582238883EC912E2370
:103240000BC0623061F49FB7F8943881822F80956B
:1032500083238883EC912E2B2C939FBF06C08FB7BE
:10326000F894E8812E2B28838FBFDF91CF910895AA
:103270003FB7F89480910D0990910E09A0910F0924
:10328000B091100926B5A89B05C02F3F19F00196F3
:10329000A11DB11D3FBFBA2FA92F982F8827820FDC
:1032A000911DA11DB11DBC01CD0142E0660F771F2C
:1032B000881F991F4A95D1F708958F929F92AF92D8
:1032C000BF92CF92DF92EF92FF926B017C01D0DF31
:1032D0004B015C01C114D104E104F104E9F0C8DF41
:1032E000DC01CB0188199909AA09BB09883E9340E2
:1032F000A105B10578F321E0C21AD108E108F1086F
:1033000088EE880E83E0981EA11CB11CC114D10464
:10331000E104F10421F7DECFFF90EF90DF90CF9032
:10332000BF90AF909F908F9008952FB7F8946091C1
:10333000090970910A0980910B0990910C092FBF1E
:1033400008951F920F920FB60F9211242F933F935F
:103350008F939F93AF93BF938091090990910A092E
:10336000A0910B09B0910C093091080923E0230FBB
:103370002D3720F40196A11DB11D05C026E8230FAD
:103380000296A11DB11D209308098093090990930D
:103390000A09A0930B09B0930C0980910D09909133
:1033A0000E09A0910F09B09110090196A11DB11D40
:1033B00080930D0990930E09A0930F09B093100903
:1033C000BF91AF919F918F913F912F910F900FBE21
:1033D0000F901F9018958091E1079091E207009758
:1033E00011F00E94EB228091DF0787FD02C060E0B0
:1033F00003CF0895CF93DF93CDB7DEB7C158D1097E
:103400000FB6F894DEBF0FBECDBF789484B582604E
:1034100084BD84B5816084BD85B5826085BD85B578
:10342000816085BD80916E00816080936E001092F6
:103430008100809181008260809381008091810071
:103440008160809381008091800081608093800002
:103450008091B10084608093B1008091B000816060
:103460008093B00080919100826080939100809160
:1034700091008160809391008091900081608093A1
:1034800090008091A10082608093A1008091A100B2
:1034900081608093A1008091A00081608093A00052
:1034A00080912101826080932101809121018160BE
:1034B000809321018091200181608093200180917F
:1034C0007A00846080937A0080917A008260809391
:1034D0007A0080917A00816080937A0080917A00EE
:1034E000806880937A001092C1006E0187E7C80E51
:1034F000D11C8AE0EFE0F3E0D60101900D928A95AD
:10350000E1F720E042E060E185EA97E00E94200FC9
:1035100061E085EA97E00E94C60D62E085EA97E0E7
:103520000E94950E8BE39FE10197F1F786E892E008
:103530001EDA81E01DDA87E992E019DA68EE73E0BD
:1035400080E090E0BADE85EA97E00E949D0E80E080
:103550000FDA8DE992E00BDAF89482E08093B00004
:103560008093B10094E69093B3001092B2008093E0
:10357000700078948093D2061092D6068091D3067C
:1035800060E03ADE68EE73E080E090E096DE85EA87
:1035900097E00E949D0E80E0EBD98EEA92E0E7D999
:1035A00061E085E329DE61E085E303DD68EE73E039
:1035B00080E090E082DE85EA97E00E949D0E809197
:1035C000AA06882321F085EA96E00E94CD08109291
:1035D000860610928406109281061092800685E37A
:1035E00080937F06A2DE8B0161E080917F0604DE7E
:1035F00061E080917F06DDDCFFB6F8948091660380
:10360000811123C0EDE0F2E08491EDEAF1E09491C4
:10361000E82FF0E0EE0FFF1FE25EFD4FA591B491A1
:10362000EC91E92319F461E085E3C3DC61E085E313
:10363000E3DD8CB580618CBD8CB580648CBD61E0B0
:1036400084E3DADD61E083E3D7DD809166038F5F99
:1036500080936603FFBE82E58093C4061092C50680
:103660008091C4069091C5060E948B028AE0F82ED4
:103670008FEF0E944402FA94F110FACF0E94670281
:103680008BE796E00E948E0220E030E0A90160E026
:103690008BE796E00E94A302F82E80938506E1E076
:1036A0008E1741F042DE601B710B613D774060F385
:1036B00081E055C02AEA31E040E050E068E08BE765
:1036C00096E00E94A30282FF03C0F092860610C01B
:1036D000B4E0FB2E0E944B0280938506FA94F11011
:1036E000F9CF8A3A11F082E03AC082E080938606F0
:1036F00080918606823021F0812C912C540105C0E6
:10370000812C912CA12CA0E4BA2E20E030E0A9015C
:1037100067E38BE796E00E94A302A501940169E2AA
:103720008BE796E00E94A30280938506882341F0F0
:10373000FCDD601B710B613D774038F388E00FC002
:1037400080918606823001F520E030E0A9016AE32D
:103750008BE796E00E94A302882341F086E08093E5
:1037600080068BE796E00E94680225C00E944B020B
:10377000807C803C19F483E0809386060E944B0293
:103780000E944B020E944B028BE796E00E94680267
:1037900080E58093C4061092C50681E05DDA882337
:1037A00031F085EA96E004DA882329F00EC080E043
:1037B00053DA8111F6CF80E0DBD88FEB92E0D7D8D7
:1037C00010926D0310926C030BC080E0D1D888EC8E
:1037D00092E0CDD881E090E090936D0380936C03EC
:1037E00068EE73E080E090E068DD85EA97E00E9493
:1037F0009D0E23961FAE1EAE239786E292E08E01A9
:10380000015C1F4FF8019183808325961FAE259799
:103810001DA21CA29BA38AA31FA2CF57DF4F188211
:10382000C158D040312C902E812EF5EAEF2EF6E0D3
:10383000FF2E3C01CE0101965C01CF57DF4F28815E
:10384000C158D040332DF601E20FF31F80818F3233
:1038500011F42F5F3F4FFE01E45AFF4F40E050E06C
:10386000D601A20FB31F8C918F3251F0882341F003
:103870004F5F5F4F2F5F3F4F81934C30510581F772
:10388000ECE5F0E0EC0FFD1FE40FF51F1082F601F0
:10389000E20FF31F80818F3211F42F5F3F4FCF571C
:1038A000DF4F2883C158D040332EF601E20FF31FBB
:1038B00020801C821B827A8269821E82AE01445A59
:1038C0005F4FB701C5018AD8882331F0C5010E9436
:1038D000CD0821100AC022C0F5EAEF16F6E0FF0677
:1038E00051F1C7010E94CD0826C0AE01445A5F4F76
:1038F000B701892D982D72D8282E85EAE81686E022
:10390000F80609F4BFC3C7010E94CD08222099F030
:103910009E2D8F2DE92CF82C4C018FCF95EAE916BE
:1039200096E0F90619F0C7010E94CD0880E020D882
:103930008EEC92E004C080E01BD88DED92E017D8A9
:1039400068EE73E080E090E0B8DC1DA21CA286E285
:1039500092E09BA38AA31FA21C821B829A83898365
:103960001E82CE01829624D93A2C2B2CFE01B296CF
:103970007F0136016FE270E0C301C3D7009709F4FD
:1039800040C0F30120812F3221F4FFEF6F1A7F0A2C
:10399000F1CF86198D3008F08CE0882E912CA4018F
:1039A000B301CE01845A9F4FBED7ECE5F0E0EC0F97
:1039B000FD1FE80DF91D1082832D922D0E94CD0868
:1039C000AE01445A5F4FB701832D922D07D8811164
:1039D0000DC023961FAE1EAE239786E292E0F8013B
:1039E0009183808325961FAE25975FC0680C791C54
:1039F000C7010E94CD089E2D8F2DE32CF22C1C01B7
:103A0000B9CF23014C185D08F70182819381239679
:103A10009FAF8EAF239786E292E0F8019183808377
:103A2000F701848124968FAF2497858125968FAFE7
:103A3000259786819781A085B185F8018683978334
:103A4000A087B187F70182859385A485B585F801A4
:103A500082879387A487B587F70186859785A08994
:103A6000B189F80186879787A08BB18BF70182898E
:103A700062968FAF629783899489A589B689F80188
:103A8000838B948BA58BB68BF7018789908DA18D45
:103A9000B28DF801878B908FA18FB28FF701838D44
:103AA000948D6C969FAF8EAF6C97C40CD51CF601AD
:103AB0008081811148C023968EAD9FAD23979C8352
:103AC0008B8386E292E09A83898324968FAD249734
:103AD0008D8325968FAD25978E83F80186819781FA
:103AE000A085B1858F839887A987BA8782859385BA
:103AF000A485B5858B879C87AD87BE87868597858E
:103B0000A089B1898F87988BA98BBA8B62968FAD6C
:103B100062978B8B83899489A589B6898C8B9D8BC1
:103B2000AE8BBF8B8789908DA18DB28D888F998F39
:103B3000AA8FBB8F6C968EAD9FAD6C979D8F8C8F2F
:103B40004FEE52E068C01DA21CA2E6E2EE2EE2E0BB
:103B5000FE2EFBA2EAA21FA225968FAD259781110A
:103B600016C0A0961FAE1EAEA09788EE93E0A0E010
:103B7000B0E0A4968CAF9DAFAEAFBFAFA497E79671
:103B80001FAE1EAEE797A9961FAEA9974AC0A60121
:103B9000B801CE0182960E94EE14882311F3C80169
:103BA0000E94CD088CA19DA19C838B83FA82E9821F
:103BB0008EA18D838FA18E8388A599A5AAA5BBA56B
:103BC0008F839887A987BA878CA59DA5AEA5BFA529
:103BD0008B879C87AD87BE8788A999A9AAA9BBA90D
:103BE0008F87988BA98BBA8B8CA98B8B8DA99EA95B
:103BF000AFA9B8AD8C8B9D8BAE8BBF8B89AD9AADC9
:103C0000ABADBCAD888F998FAA8FBB8F8DAD9EADAC
:103C10009D8F8C8FA601B501CE01845A9F4F0E94C3
:103C20000F02A0968EAD9FADA0979093C107809391
:103C3000C007A4968CAD9DADAEADBFADA4978093EB
:103C4000C2079093C307A093C407B093C507A89673
:103C50008CAD9DADAEADBFADA8978093C6079093D8
:103C6000C707A093C807B093C9078DE0ECE5F0E063
:103C7000EC0FFD1F3C96AAECB7E001900D928A95DF
:103C8000E1F7E796EEADFFADE797F093D807E09345
:103C9000D707309729F083899489A589B68903C00D
:103CA00080E090E0DC01909369038093680385EAEB
:103CB00097E00E949D0E80E00E94B81481EF92E090
:103CC0000E94B714C0906803D09069030D2C000CBB
:103CD000EE08FF08F7FE2AC0E091A507F091A607BD
:103CE0000190F081E02D6DE285EA97E01995222799
:103CF0003327A9012C193D094E095F0919A2CE01EC
:103D000081967C017AE0472E512C612C712CCA01DE
:103D1000B901A30192017DD3605DF70162937F0138
:103D2000211531054105510591F719C0A7019601EB
:103D300019A2CE0181967C016AE0462E512C612C9D
:103D4000712CCA01B901A301920163D3605DF7012F
:103D500062937F01211531054105510591F7C70196
:103D60000E94A51468EE73E080E090E0A6DA8091EE
:103D7000DF0787FD06C061E03FDA60E08091DF0782
:103D800018D981E08093DA0780E00E94A30B26E037
:103D900030E03093EF072093EE0725E0C22ED12CC0
:103DA000E12CF12CC092F207D092F307E092F407D5
:103DB000F092F50722E030E03093030820930208E8
:103DC0006093FA077093FB078093FC079093FD07BD
:103DD00010920508109204081092F1071092F00753
:103DE000E6E0F8E0119289E0E630F807D9F79DDACD
:103DF000C090F607D090F707E090F807F090F90729
:103E0000DC01CB018C199D09AE09BF09C090F207F6
:103E1000D090F307E090F407F090F507C816D906A4
:103E2000EA06FB0610F40E941C1285EA97E00E9445
:103E30009D0E80E00E94B8148EEF92E00E94B714AD
:103E400060ED77E080E090E038DA8AE0F82EEE244A
:103E5000E39480916C0390916D03019709F0F1C098
:103E60001BA21AA21DA21CA21FA21EA260E070E04B
:103E7000CE0182960E94340E811105C0CE01829639
:103E80000E945B0E07C01FA21EA26DEF72E08AA106
:103E90009BA142D58091D7079091D807009721F434
:103EA0008AA19BA198D3CDC0FC0125812223C1F317
:103EB00040916A0350916B0320916803309169032C
:103EC0004217530724F010926B0310926A0340913B
:103ED0006A0350916B03052E000C660B770B0E9452
:103EE000F4058EEB97E00E943D0D892B09F44BC041
:103EF0008EEB97E00E94E70D982E1A8219821C82A1
:103F00001B821E821D82BE016E5D7F4FC5010E9415
:103F10006D0E9FAE21961FAE2197CD80DE80FFEF04
:103F2000CF1ADF0AB601C5010E94340E882359F06A
:103F300029813A818D819E81B801820F931FECD433
:103F4000DE82CD8203C0C5010E945B0EB501CE01A9
:103F500082960E946D0E89819A813DD3E091D707A8
:103F6000F091D807309729F082859385A485B5858F
:103F700003C08FEF9FEFDC0190936B0380936A0384
:103F80008AE09812AECF6EA17FA14AA15BA1611514
:103F9000710519F04115510529F410926703E7E600
:103FA000F3E001C0FA012081109201021092000298
:103FB00081E090E0A0E0B0E030ED320F3A30F0F474
:103FC000FA9EF001FB9EF00D1124022E000C330B23
:103FD00020533109DF01A20FB31F8617970718F48A
:103FE0004115510529F410926703E7E6F3E003C099
:103FF000FA01E80FF91F20810196DECFB09301028C
:10400000A09300029C0128533F4FE6E0F8E086179A
:10401000970718F44115510529F410926703A7E694
:10402000B3E003C0DA01A80FB91FAC91A13311F4BA
:10403000E08201C01082029631968217930739F709
:104040002FCF73D94090F6075090F7076090F8078C
:104050007090F907DC01CB0184199509A609B7090D
:104060004090F2075090F3076090F4077090F507C6
:10407000481659066A067B0610F40E941C120E941C
:10408000050DE7CE222009F456CCFE01B2967F0141
:104090003FCCCF93DF931092E1051092E00588EEBC
:1040A00093E0A0E0B0E08093E2059093E305A09355
:1040B000E405B093E50524E132E03093DF05209379
:1040C000DE0525EC30E03093EB052093EA0524EC87
:1040D00030E03093ED052093EC0520EC30E0309398
:1040E000EF052093EE0521EC30E03093F1052093AD
:1040F000F00522EC30E03093F3052093F20526EC36
:1041000030E03093F5052093F4051092F7051092F6
:10411000F8051092F9051092FA0510928006109297
:104120008106109284061092860642E050E060E01C
:1041300070E04093870650938806609389067093D9
:104140008A0610929E061092A8061092A70626E2F2
:1041500032E03093A6062093A5061092AA0620E529
:104160002093C4061092C5061092C9061092C80684
:104170008093CA069093CB06A093CC06B093CD064D
:1041800082E392E09093C7068093C6061092DA0706
:104190001092E0071092E7071092E8071092E907E3
:1041A0001092EA0781E08093E6078093E30710927C
:1041B000E40792E09093E5078093D907C0E0D3E04D
:1041C000D093DE07C093DD0780E093E06FD190933A
:1041D000E2078093E107009769F0FC019E011192CC
:1041E00021503040E1F780E091E09093DC0780932C
:1041F000DB0708C01092DE071092DD071092DC0783
:104200001092DB0783E08093DF078091DA07882331
:1042100041F061E083E00E94FC1860E083E00E94CE
:10422000D917EBEDF1E0E491F0E0EE0FFF1FE2545F
:10423000FE4F859194919093EC078093EB07EBE709
:10424000F1E0E491E093ED0788ED9BE0909307099E
:10425000809306091092C1071092C00788EE93E080
:10426000A0E0B0E08093C2079093C307A093C40777
:10427000B093C50788E592E09093BF078093BE078F
:104280001092D8071092D7071092CA071092A80769
:104290001092A70784E492E09093A6078093A50765
:1042A0001092B5078FEF8093B4071092B307109266
:1042B000B60787E28093B0071092B1071092B20759
:1042C0001092AF071092AE0784E08093B70782E0A8
:1042D0008093B80781E08093B90780E18093BA07A3
:1042E00080E28093BB0780E48093BC0780E88093E2
:1042F000BD0740E050E063E085EA97E00E94160CBD
:104300008BE08093D3061092D506DF91CF9108956C
:104310008F929F92AF92BF92CF92DF92EF92FF92D5
:10432000CF93DF93EC01688179818A819B8161154C
:1043300071058105910521F464E279ED8BE597E043
:104340002DE133EF41E050E038D049015A019B01A3
:10435000AC01A7EAB1E44DD06B017C01ACEEB4EF47
:10436000A501940152D0DC01CB018C0D9D1DAE1D29
:10437000BF1DB7FF03C00197A109B0488883998387
:10438000AA83BB83BC01CD019F77DF91CF91FF90C2
:10439000EF90DF90CF90BF90AF909F908F90089557
:1043A000B7CF86E092E0B4CF609306027093070225
:1043B00080930802909309020895052E97FB16F446
:1043C00000940FD057FD05D024D007FC02D046F44E
:1043D00008C050954095309521953F4F4F4F5F4F06
:1043E000089590958095709561957F4F8F4F9F4F61
:1043F000089531D0A59F900DB49F900DA49F800D7E
:10440000911D11240895B7FFF4CFF3DF821B930BA6
:104410000895A1E21A2EAA1BBB1BFD010DC0AA1F05
:10442000BB1FEE1FFF1FA217B307E407F50720F01D
:10443000A21BB30BE40BF50B661F771F881F991F98
:104440001A9469F760957095809590959B01AC01E1
:10445000BD01CF010895A29FB001B39FC001A39FEA
:10446000700D811D1124911DB29F700D811D1124AD
:10447000911D0895AA1BBB1B51E107C0AA1FBB1FBA
:10448000A617B70710F0A61BB70B881F991F5A95E0
:10449000A9F780959095BC01CD010895EE0FFF1FFF
:1044A000881F8BBF0790F691E02D1994CF93DF936F
:1044B0008230910510F482E090E0E0911309F091D0
:1044C000140920E030E0C0E0D0E0309711F14081E5
:1044D000518148175907C0F04817590761F4828184
:1044E0009381209719F09B838A832BC090931409A2
:1044F0008093130926C02115310519F0421753077F
:1045000018F49A01BE01DF01EF010280F381E02D72
:10451000DCCF2115310509F1281B390B2430310579
:1045200090F412968D919C9113976115710521F06D
:10453000FB019383828304C0909314098093130931
:10454000FD01329644C0FD01E20FF31F8193919368
:10455000225031092D933C933AC02091110930919A
:104560001209232B41F420910C0230910D0230935B
:1045700012092093110920910A0230910B02211592
:10458000310541F42DB73EB740910E0250910F0214
:10459000241B350BE0911109F0911209E217F30782
:1045A000A0F42E1B3F0B2817390778F0AC014E5FA3
:1045B0005F4F2417350748F04E0F5F1F50931209C5
:1045C000409311098193919302C0E0E0F0E0CF01A4
:1045D000DF91CF9108950F931F93CF93DF930097AF
:1045E00009F48CC0FC0132971382128200911309E6
:1045F000109114090115110581F420813181820F78
:10460000931F20911109309112092817390779F564
:10461000F0931209E093110971C0D80140E050E015
:10462000AE17BF0750F412962D913C911397AD0130
:104630002115310509F1D901F3CF9D01DA01338349
:10464000228360817181860F971F8217930769F417
:10465000EC0128813981260F371F2E5F3F4F3183B0
:1046600020838A819B8193838283452B29F4F09355
:104670001409E093130942C01396FC93EE9312972A
:10468000ED01499159919E01240F351FE217F3075F
:1046900071F480819181840F951F029611969C93ED
:1046A0008E938281938113969C938E931297E0E070
:1046B000F0E0D80112968D919C911397009719F014
:1046C000F8018C01F6CF8D919C9198012E5F3F4FA0
:1046D000820F931F20911109309112092817390771
:1046E00069F4309729F4109214091092130902C04A
:1046F000138212821093120900931109DF91CF9156
:104700001F910F9108956F927F928F929F92AF9217
:10471000BF92CF92DF92EF92FF920F931F93CF93AE
:10472000DF93EC01009781F4CB01DF91CF911F91D2
:104730000F91FF90EF90DF90CF90BF90AF909F9040
:104740008F907F906F90B2CEFC01E60FF71F9C0117
:1047500022503109E217F30708F4A8C0D9010D91DE
:104760001C91119706171707A8F00530110508F4DA
:104770009BC0C80104978617970708F495C002509C
:104780001109061B170B019311936D937C93CF01B5
:1047900022DF8AC05B01A01AB10A4C01800E911E73
:1047A000A0911309B091140940E050E0E12CF12CE4
:1047B000109709F44AC0A815B905D1F56D907C9001
:1047C0001197630182E0C80ED11CCA14DB0480F18A
:1047D000A3014A195B096A0182E0C80ED11C129636
:1047E000BC9012971396AC91B5E0CB16D10440F073
:1047F000B282A38351834083D9016D937C930AC015
:104800000E5F1F4FC301800F911FF90191838083B9
:10481000EB2DFA2FE114F10431F0D7011396FC933C
:10482000EE93129741C0F0931409E09313093CC032
:104830008D919C9111974817590708F4AC017D019F
:1048400012960D90BC91A02DB3CF8091110990913B
:10485000120988159905E1F446175707C8F48091A5
:104860000A0290910B02009741F48DB79EB74091D8
:104870000E0250910F02841B950BE817F907B0F454
:10488000F0931209E0931109F901718360830CC060
:10489000CB010CDE7C01009749F0A801BE0128D0B5
:1048A000CE0199DEC70104C0CE0102C080E090E0D5
:1048B000DF91CF911F910F91FF90EF90DF90CF90FC
:1048C000BF90AF909F908F907F906F90089581E000
:1048D00090E0F89437C0FB01DC0104C08D91019099
:1048E000801921F441505040C8F7881B990B089556
:1048F000FB01DC0102C001900D9241505040D8F7FD
:104900000895FC018191861721F08823D9F7992712
:1049100008953197CF010895FB01DC0101900D92BC
:104920000020E1F70895FB01DC014150504048F0C0
:1049300001900D920020C9F701C01D9241505040D6
:10494000E0F7089511E0CDE1D1E000E005C0802F4F
:10495000FE01A4DD2196011DCE31D10780E00807BC
:06496000B1F7F894FFCF4F
:10496600E803FFFFFFFF01000000000015098000BB
:10497600000000009E0CEB0B370CE40C680C460C98
:104986005A0C00000000610AEB0B7D017C0100005F
:104996000000E101B2017D01500174016001510185
:1049A600000000002A0CEB0B7D017C01200F160C89
:1049B600C60DA70D000000005E0D190E7D01E00D6D
:1049C6003D0DE70DF00D00000000740DEB0B7D01B1
:1049D6007C01740D740D740D00000000740DEB0B5A
:1049E6007D017C010B00436F7265312E4D454741B9
:1049F6002076312E303100537461727400496E692D
:104A06006369616C697A616E646F20495200496E10
:104A1600696369616C697A616E646F2053440053FF
:104A260044204572726F72005344204F4B00466912
:104A3600636865726F2045786973746500466963BB
:104A46006865726F204E4F20457869737465002F34
:104A560000546F74616C62797465733A2000456E18
:104A66007472616E646F20656E204C6F6F700061AA
:0A4A76006E696D332E747874000031
:00000001FF
