:100000001DC100004CC100004AC1000048C10000F1
:1000100046C1000044C1000042C1000040C10000D0
:100020003EC100003CC100003AC1000038C10000E0
:1000300036C100000C94C61032C1000030C100006F
:100040002EC100002CC100002AC1000028C1000000
:1000500026C1000024C1000022C100000C949C1A9B
:100060001EC100000C94C70F0C949E0F18C1000015
:1000700016C1000014C1000012C1000010C1000030
:100080000EC100000CC100000AC1000008C1000040
:1000900006C1000004C1000002C100000C94CB0A9C
:1000A000FEC00000FCC00000FAC00000F8C0000064
:1000B000F6C00000F4C00000F2C00000F0C0000074
:1000C000EEC00000ECC00000EAC00000E8C0000084
:1000D000E6C00000E4C00000E2C00000E0C0000094
:1000E000DEC000006615691558155C156215A0156F
:1000F0006D15711577157B157F15851589158D156E
:10010000A015931597159B150000200023002600CD
:1001100029002C002F00320000010000030106011D
:10012000090100002100240027002A002D003000D2
:10013000330001010000040107010A0100000A0B5D
:1001400002090C0D0E080703040100000000000066
:10015000000000000000000000000000000000009F
:10016000000000000000000012111000000000005C
:10017000000000000000000000000000000000007F
:1001800000007C3C3E5E2B3D3F2F5B5D3B2C2A22DA
:100190005C00010210202008081020401020408040
:1001A000020102010804020101020408102040803B
:1001B00080402010080402018004020180402010C9
:1001C0000804020108040201010204081020408012
:1001D00001020408102040800000220025002800B1
:1001E0002B002E003100340002010000050108013F
:1001F0000B010505050507050808080802020202AB
:100200000A0A0808040404040101010101010101B2
:100210000303030303030303040707070C0C0C0C7D
:100220000C0C0C0C02020202060606060606060666
:100230000B0B0B0B0B0B0B0BE527D62711241FBE4B
:10024000CFEFD1E2DEBFCDBF00E00CBF29E0A0E2DE
:10025000B3E001C01D92AD32B207E1F713E0A0E0B8
:10026000B2E0EAE6FCE500E00BBF02C007900D92A9
:10027000A032B107D9F711E0CDE1D1E000E006C02E
:1002800021970109802FFE010E94992BCC31D107C3
:1002900080E00807A9F70E94E61A0C94242EB0CE3D
:1002A000CF93DF931F92CDB7DEB76983DC01ED9169
:1002B000FC910280F381E02D41E050E0BE016F5FD0
:1002C0007F4F19950F90DF91CF9108950895E09198
:1002D000770380917603E81730F4F0E0E858FC4F9C
:1002E000808190E008958FEF9FEF089590917703BC
:1002F00080917603981750F4E92FF0E0E858FC4F0E
:10030000208130E09F5F9093770302C02FEF3FEF93
:10031000C90108958091760390E020917703821BB4
:1003200091090895089580E090E0089585ED809307
:10033000BC008091BC0084FDFCCF1092C6030895E0
:1003400040914C03262F30E0240F311D213231051E
:10035000DCF42091C6032430C9F4FC0180E090E075
:10036000861758F430914C032191DC01A65DBC4FF7
:10037000A30FB11D2C930196F3CF80914C03680F0E
:1003800060934C0380E0089581E0089582E0089531
:10039000CF92DF92EF92FF920F931F93CF93DF9351
:1003A0007C01262F972F8A018091C703882391F023
:1003B000C62FD72F6E01C40ED51ECC15DD0569F0F2
:1003C0006991D701ED91FC910190F081E02DC70179
:1003D0001995F3CF642F822FB3DFC801DF91CF913E
:1003E0001F910F91FF90EF90DF90CF900895CF93E2
:1003F000DF931F92CDB7DEB769832091C703222315
:10040000D1F02091E903203240F021E030E0FC01FE
:100410003383228380E090E014C08091C803E82FEA
:10042000F0E0E753FC4F998190838F5F8093C8037E
:100430008093E90304C061E0CE01019681DF81E091
:1004400090E00F90DF91CF9108950895EF92FF9281
:100450000F931F93CF93DF93EC017B018A011B82E3
:100460001A8288EE93E0A0E0B0E08C839D83AE8397
:10047000BF8384E592E0998388838DE190E00E94B8
:10048000D82B9A8F898F009779F02DE1F701DC0145
:1004900001900D922A95E1F74CE050E0B801CE01B1
:1004A0000C960E94152E188EDF91CF911F910F91FF
:1004B000FF90EF9008958EBD00000DB407FEFDCFB4
:1004C0008EB508958FEFF7CF0F931F93CF93DF93E0
:1004D000EB010E9469168B01F5DF8F3F49F00E9406
:1004E0006916601B710B6C177D07B0F380E001C0CB
:1004F00081E0DF91CF911F910F910895089561E000
:10050000FC0184810E94A1158091710381111092D8
:1005100071030895CF93DF93EC018E81882379F0E6
:100520008F8198859C012F5F3F4F38872F838230C2
:10053000924010F4C7DFF4CFCE01E1DF1E82DF91DD
:10054000CF9108958CBD9DBD0895CF93DF93EC01AD
:1005500080917103811108C081E0809371038091C3
:10056000E4069091E506EEDF60E08C81DF91CF91AB
:100570000C94A115CF92DF92FF920F931F93CF930C
:10058000DF9300D01F92CDB7DEB76C01F62E298322
:100590003A834B835C83BEDFC601D7DF6CE271E038
:1005A000C60192DF8F2D806486DF08E110E05C8158
:1005B0004B813A812981DA01C901002E04C0B69528
:1005C000A795979587950A94D2F729833A834B8309
:1005D0005C8371DF0850110929813A814B815C816C
:1005E000083F8FEF180739F7FF2029F0E8E0FE12E7
:1005F00004C087E803C085E901C08FEF5CDF10E02D
:1006000061DFF601828787FF04C01F3F11F01F5F83
:10061000F7CF0F900F900F900F90DF91CF911F9118
:100620000F91FF90DF90CF900895AF92BF92CF923D
:10063000DF92EF92FF920F931F93CF93DF93EC0122
:100640006901C801820F931F8130924008F06AC08F
:100650008E81882371F088819981AA81BB81481796
:1006600059076A077B0729F48F819885C816D90630
:1006700098F5488359836A837B838B85833039F06F
:1006800089E0440F551F661F771F8A95D1F79A019D
:10069000AB0161E1CE016EDF882319F083E08D8329
:1006A00041C00E9469165B010DDF8A878F3F49F4C4
:1006B0000E9469166A197B096D327140A8F38FE0B8
:1006C00003C08E3F29F08DE08D83CE0118DF2AC054
:1006D00018861F8281E08E838F8198858C159D05F9
:1006E00038F4F0DE8F819885019698878F83F4CF58
:1006F0006701E00EF11ECE14DF0429F0E3DEF601FF
:1007000081936F01F8CF8F819885080F191F188783
:100710000F838985882319F00115124038F0CE0126
:10072000F9DE04C0CE01EBDE80E001C081E0DF91A4
:10073000CF911F910F91FF90EF90DF90CF90BF90DE
:10074000AF900895EF92FF920F931F93CF93DF9393
:10075000EC017901411551056105710511F482E142
:1007600034C08B85833039F089E0440F551F661FF4
:10077000771F8A95D1F79A01AB0168E1CE01FADEC5
:10078000882311F084E021C08EEF95DE87018EEF83
:10079000F81AF80181918F018EDE0E151F05C9F739
:1007A0008FEF89DE8FEF87DE8DDE8A878F71853050
:1007B00029F081E18D83CE01A2DE08C068E572E0F8
:1007C000CE0182DE811106C085E18D83CE0197DEE8
:1007D00080E010C020E030E0A9016DE0CE01CADE6B
:1007E000811103C06FDE882311F084E1EECFCE01CA
:1007F00086DE81E0DF91CF911F910F91FF90EF9006
:1008000008958091FC03882399F140910202509150
:10081000030260910402709105022EEF33E0809193
:10082000FA039091FB038EDF811102C080E00895EE
:10083000409172035091730360917403709175033A
:10084000411551056105710589F02EEF33E0809166
:10085000FA039091FB0376DF882341F31092720331
:100860001092730310927403109275031092FC039C
:1008700081E008958F929F92AF92BF92EF92FF9284
:100880000F931F93CF934B015C01C42F8091020201
:1008900090910302A0910402B09105028815990578
:1008A000AA05BB05F1F0ADDF811102C080E01FC0D9
:1008B0008EEFE82E83E0F82E00E012E020E030E03A
:1008C000B501A4018091FA039091FB03AEDE882369
:1008D00069F38092020290920302A0920402B09205
:1008E00005028091FC03C82BC093FC0381E0CF91EB
:1008F0001F910F91FF90EF90BF90AF909F908F90BE
:1009000008954F925F926F927F928F929F92AF92D3
:10091000BF92CF92DF92EF92FF920F931F93CF93EC
:10092000DF93EC016A017B01280139014230510556
:100930006105710510F480E072C089859A85AB85E8
:10094000BC850196A11DB11D84179507A607B707A1
:1009500090F38B889C88AD88BE888F89803129F47C
:10096000BB27AF2D9E2D8D2D09C0DB01CA0147E0AD
:10097000B695A795979587954A95D1F7880E991EB4
:10098000AA1EBB1E8091020290910302A091040254
:10099000B091050288169906AA06BB0679F48F89DC
:1009A000803199F4DD24EE24FF24C601880F991FBD
:1009B000FC01E250FC4F5182408218C040E0C5016A
:1009C000B40158DF8111EBCFB6CFE894C7F8DD242E
:1009D000EE24FF24C601880F991F880F991FFC0180
:1009E000E250FC4F40825182628273828091FC030C
:1009F00081608093FC038A89823080F08D819E81A2
:100A0000AF81B885880E991EAA1EBB1E8092720304
:100A100090927303A0927403B092750381E0DF910A
:100A2000CF911F910F91FF90EF90DF90CF90BF90EB
:100A3000AF909F908F907F906F905F904F900895B0
:100A40008F929F92AF92BF92CF92DF92EF92FF92DE
:100A50000F931F93CF93DF93FC0181859285A3852C
:100A6000B4850196A11DB11D84179507A607B70788
:100A700010F480E05BC083899489A589B689C78911
:100A8000C03129F4852E962EA72EBB2409C04A0119
:100A90005B01C7E0B694A79497948794CA95D1F761
:100AA000E9016A017B018F01BC01CD01680D791D4F
:100AB0008A1D9B1D8090020290900302A090040268
:100AC000B0900502681579058A059B0599F4F8012F
:100AD00087898031A1F4B701A601552766277727BA
:100AE000440F551FFA01E250FC4F80819181A0E034
:100AF000B0E017C040E0BEDE8111E9CFBACFB70148
:100B0000A6014F77552766277727440F551F440FB7
:100B1000551FFA01E250FC4F80819181A281B3817F
:100B2000BF7088839983AA83BB8381E0DF91CF91D3
:100B30001F910F91FF90EF90DF90CF90BF90AF90FB
:100B40009F908F9008954F925F926F927F92AF9295
:100B5000BF92CF92DF92EF92FF920F931F93CF93AA
:100B6000DF9300D01F92CDB7DEB78C0149835A8343
:100B70006B837C835901C12CD12C7601412C82E0FE
:100B8000582E612C712C49815A816B817C819E0188
:100B90002F5F3F4FC80154DF882351F1D301C201B9
:100BA000F801058404C0880F991FAA1FBB1F0A946F
:100BB000D2F7C80ED91EEA1EFB1E49815A816B81ED
:100BC0007C818789803129F088EF9FEFAFEFBFE00C
:100BD00004C088EF9FEFA0E0B0E0481759076A070C
:100BE0007B0788F2F501C082D182E282F38281E044
:100BF0000F900F900F900F90DF91CF911F910F9159
:100C0000FF90EF90DF90CF90BF90AF907F906F906C
:100C10005F904F9008958F929F92AF92BF92CF9224
:100C2000DF92EF92FF920F931F93CF93DF93EC012C
:100C30008D81811102C080E076C00B891C892D89CD
:100C40003E890417150726073707A8F36A017B01B9
:100C5000823029F4CA86DB86EC86FD860DC0C1147D
:100C6000D104E104F10451F41E821F821886198612
:100C70001A861B861C861D8681E055C08A849B844B
:100C8000AC84BD84EB8DFC8D258530E0275F3F4F24
:100C9000B501A4014150510961097109022E04C036
:100CA00076956795579547950A94D2F7D701C6016F
:100CB0000197A109B10904C0B695A79597958795A5
:100CC0002A95D2F784179507A607B70720F0892839
:100CD0008A288B2849F44F89588D698D7A8D4E83E7
:100CE0005F836887798704C0841B950BA60BB70BBD
:100CF0004C015D018E010A5F1F4F81149104A10414
:100D0000B10409F4A7CF4E815F8168857985980188
:100D10008B8D9C8D95DE91E0891A9108A108B10810
:100D20008111EBCF88CFDF91CF911F910F91FF9071
:100D3000EF90DF90CF90BF90AF909F908F900895ED
:100D40003F924F925F926F927F928F929F92AF925B
:100D5000BF92CF92DF92EF92FF920F931F93CF93A8
:100D6000DF93CDB7DEB72C970FB6F894DEBF0FBE7A
:100D7000CDBF5C01DC015B968D909C905C971696D4
:100D8000CD90DD90ED90FC901997C114D104E10451
:100D9000F10439F0BFEFCB1ADB0AEB0AFB0A312C66
:100DA00007C0F401C080D180E280F3803324339403
:100DB000F40181859285A385B4859C01AD012F5FE7
:100DC0003F4F4F4F5F4F29873A874B875C872601FC
:100DD00037011D821E821F821886F401818592854B
:100DE000A385B4852D813E814F8158852817390709
:100DF0004A075B0708F060C089859A85AB85BC858A
:100E00008C159D05AE05BF0550F482E0C82ED12C8F
:100E1000E12CF12C92E0492E512C612C712C9E0179
:100E20002F5F3F4FB701A601C4010ADE882309F4F2
:100E300043C089819A81AB81BC81892B8A2B8B2B02
:100E400041F0260137019FEF491A590A690A790AC8
:100E500005C0C414D504E604F70491F02D813E8149
:100E60004F8158852F5F3F4F4F4F5F4F2D833E83FC
:100E70004F8358873FEFC31AD30AE30AF30AADCF73
:100E80000FEF1FEF2FEF3FE0B301A201C40139DDE7
:100E9000882391F0D50116964D915D916D917C91CD
:100EA0001997411551056105710541F093018201C2
:100EB000C40127DD811102C080E02AC0D501169649
:100EC0004D925D926D927C921997332051F0D3012F
:100ED000C2010196A11DB11DF40180839183A283FB
:100EE000B383F5018789908DA18DB28D892B8A2BD3
:100EF0008B2B69F4D50157964D925D926D927C9241
:100F00005A9714968C911497806814968C9381E06C
:100F10002C960FB6F894DEBF0FBECDBFDF91CF91F8
:100F20001F910F91FF90EF90DF90CF90BF90AF9007
:100F30009F908F907F906F905F904F903F9008951B
:100F40002F923F924F925F926F927F928F929F92D9
:100F5000AF92BF92CF92DF92EF92FF920F931F93C7
:100F6000CF93DF931F921F92CDB7DEB7FC0185812F
:100F7000882309F4D6C0848180FFD3C021E02A836E
:100F8000438954896589768982859385A485B58549
:100F9000481759076A077B0709F41A826F013A81DB
:100FA000832F90E0DE0111964D013F01B6E06B0EFC
:100FB000711C892B09F47CC0D6011A964D915D9164
:100FC0006D917C911D975A01B1E0BB22F6012581FC
:100FD0001A012B0189E056944794379427948A95F7
:100FE000D1F7838D948D223061F4FC01828D938D35
:100FF000A48DB58DBC01CD01620D731D841D951DA1
:1010000044C0DC0114961C9111501221A114B104AA
:10101000C9F4111117C0452B462B472B51F4F6018B
:101020008789908DA18DB28D86839783A087B187A4
:1010300009C04681578160857185930101DD882350
:1010400009F46FC0F601238D348D86819781A085C8
:10105000B1850297A109B109AC01BD01F90105846F
:1010600004C0440F551F661F771F0A94D2F7868568
:101070009785A089B189840F951FA61FB71FBC0152
:10108000CD01610F711D811D911DD60114962C910A
:1010900026FF14C000910202109103022091040265
:1010A00030910502601771078207930749F506C062
:1010B000FA81FF23B1F1898190E035C040E0DADBAD
:1010C000882379F1F501E250FC4FD401CF0101965C
:1010D000E817F90719F021912D93FACFEFEF8E1A47
:1010E0009E0AF60182859385A485B5850196A11D8A
:1010F000B11D82879387A487B58780E090E059CFA0
:10110000740101E010E09501AB01BC018091FA038C
:101110009091FB038ADA882321F0BFEF8B1A9B0A98
:10112000E0CF8FEF9FEF0F900F90DF91CF911F9146
:101130000F91FF90EF90DF90CF90BF90AF909F9076
:101140008F907F906F905F904F903F902F90089579
:101150000F931F93CF93DF93FC01818D928D0097A6
:10116000A9F0EF01EDDE8C010F3F8FEF180789F03A
:10117000898D9A8DFC014285538564857585415022
:1011800051096109710947DDC80105C080E090E09F
:1011900002C08FEF9FEFDF91CF911F910F910895C4
:1011A000CF93DF93EC018D81882391F18C8187FFB0
:1011B0002CC06E857F858889998941E05BDB882317
:1011C00039F1EA8980E2E89FF0011124DF01A250A1
:1011D000BC4F1097E9F08D81823050F44B895C89C7
:1011E0006D897E895C964D935D936D937C935F973B
:1011F0008F89988DA98DBA8DE250FC4F938F828F85
:10120000B58BA48B8C818F778C83DF91CF91F9CABA
:1012100080E0DF91CF910895CF93DF93EC01C0DFA1
:10122000882311F01D8281E0DF91CF9108952F92E4
:101230003F924F925F926F927F928F929F92AF9266
:10124000BF92CF92DF92EF92FF920F931F93CF93B3
:10125000DF9300D01F92CDB7DEB78C015B011A017E
:10126000DC0115968C9115978130C1F414968C9100
:1012700081FF14C082FF1AC0F8014389548965892F
:10128000768982859385A485B58584179507A607F9
:10129000B70761F0C801BFDC811108C081E090E0B0
:1012A000F8019383828380E090E033C1610182C0C2
:1012B000D8015B968D919C915C97FC012481215013
:1012C0002A013B0139E076946794579447943A9504
:1012D000D1F7722E74207A01F1E0FF22772009F411
:1012E00075C080E092E08E199F0946018C159D051E
:1012F00008F44C01D8015B962D913C915C971696B1
:101300008D919D910D90BC91A02D0297A109B109DD
:10131000F901058404C0880F991FAA1FBB1F0A94F6
:10132000D2F74685578560897189840F951FA61F5E
:10133000B71F9C01AD01270D311D411D511D290114
:101340003A01811432E0930609F085C080910202CF
:1013500090910302A0910402B091050284159505B5
:10136000A605B70559F48FEF9FEFDC0180930202C9
:1013700090930302A0930402B09305029501B30178
:10138000A2018091FA039091FB03DCD9882309F430
:1013900085CF9EEFB91AC818D908F80182859385C0
:1013A000A485B585880D991DA11DB11D82879387E0
:1013B000A487B587D8011A964D915D916D917C9166
:1013C0001D97C114D10409F073CF83C0E114F10457
:1013D00009F087CF16964D915D916D917C9119978B
:1013E000411551056105710559F457968D919D91EF
:1013F0000D90BC91A02D0097A105B10531F520C03D
:101400009E012F5F3F4F1CDB882309F44DCF89815C
:101410009A81AB81BC81F801238D348DF901278934
:10142000203129F048EF5FEF6FEF7FE004C048EF15
:101430005FEF60E070E084179507A607B70728F014
:10144000C8017EDC81114DCF29CFF80186839783B7
:10145000A087B18746CFE114F10421F5D8011A968F
:101460004D915D916D917C911D9753968D919D91BC
:101470000D90BC91A02D481759076A077B0790F083
:10148000C0D9882309F40ACF409202025092030285
:1014900060920402709205028091FC038160809347
:1014A000FC0307C041E0C301B201E4D9882309F479
:1014B000F5CED501F701E250FC4FCF01880D991D03
:1014C000E817F90719F02D912193FACFA80CB91C50
:1014D00062CF53968D919D910D90BC91A02D841754
:1014E0009507A607B70740F4F801438B548B658B2B
:1014F000768B848180688483D80114968C9183FDD7
:1015000002C0C10106C0C8014BDE882309F4C6CE63
:10151000F8CF0F900F900F900F90DF91CF911F9108
:101520000F91FF90EF90DF90CF90BF90AF909F9082
:101530008F907F906F905F904F903F902F90089585
:10154000CF93DF93EC01898D9A8D009739F481E078
:1015500090E09B838A8380E090E00AC0FC011382C4
:10156000128265DEE98DFA8D22813381232B79F792
:10157000DF91CF910895CF93DF931F92CDB7DEB760
:10158000698341E050E0BE016F5F7F4F50DE0F90F6
:10159000DF91CF9108951F920F920FB60F921124F1
:1015A0000BB60F922F933F934F935F936F937F935D
:1015B0008F939F93AF93BF93EF93FF938091B90065
:1015C000887F803609F49CC068F5883209F45BC0D6
:1015D00090F4803109F454C038F4882309F4F6C03B
:1015E000883009F44DC0F6C0883109F44CC080320F
:1015F00009F45DC0EFC0803409F468C048F480335A
:1016000009F455C0883309F0E5C08093C403D8C0FD
:10161000803509F44FC0883509F45DC0883409F07D
:10162000D9C0D6C0883909F4C7C0A8F4883709F4EE
:1016300067C038F4883609F463C0803709F460C0A5
:10164000C9C0883809F4B8C0803909F45FC080384F
:1016500009F0C0C05BC0803B09F486C038F4803A12
:1016600009F466C0883A09F47FC0B4C0803C09F42C
:10167000A7C0883C09F4A4C0883B09F48AC0AAC06A
:101680008091A10310C09091C3038091C203981769
:1016900070F5E091C30381E08E0F8093C303F0E007
:1016A000EE55FC4F80818093BB0085EC86C0809313
:1016B000C4038EC0E091C30381E08E0F8093C30307
:1016C0008091BB00F0E0EE55FC4F80839091C30306
:1016D0008091C2036EC0E091C30381E08E0F8093BE
:1016E000C3038091BB00F0E0EE55FC4F80838091F6
:1016F000C50381116DC081E08093A00384EA61C0BD
:1017000083E08093C60310927003CFCF8091700363
:10171000803208F051C0E091700381E08E0F809319
:1017200070038091BB00F0E0E05BFC4F8083BDCF95
:1017300085EC8093BC001092C603809170038032C8
:1017400030F4E0917003F0E0E05BFC4F10826091B8
:10175000700370E0E0914E03F0914F0380E593E059
:1017600019951092700336C084E08093C6031092DE
:101770004D0310924C03E0914A03F0914B031995ED
:1017800080914C03811105C081E080934C0310923D
:101790002A03E0914D0381E08E0F80934D03F0E02A
:1017A000E65DFC4F80818093BB0090914D0380915A
:1017B0004C03981708F479CF85E88093BC000AC0E1
:1017C00085EC8093BC001092C60304C01092C40341
:1017D0000E949601FF91EF91BF91AF919F918F91E0
:1017E0007F916F915F914F913F912F910F900BBE21
:1017F0000F900FBE0F901F9018950F931F93809519
:10180000853560F4682F660F860F282F209590E0AD
:10181000A0E0B0E0BC01CD01822B21C08A3A80F467
:101820008555982F990F980F692F6095462F50E096
:1018300060E070E08A019B01192BC901B8010FC05B
:101840008A5A682F660F860F282F209590E0A0E017
:10185000B0E0DC0199278827BC01CD01722B1F91D4
:101860000F910895CF92DF92EF92FF920F931F9303
:10187000CF93DF936C017A018B01C0E0D0E0CE15ED
:10188000DF0589F0D8016D918D01D601ED91FC91B4
:101890000190F081E02DC6011995892B11F47E018C
:1018A00002C02196ECCFC701DF91CF911F910F911C
:1018B000FF90EF90DF90CF90089521E001C0220FBC
:1018C0006A95EAF7DC011C962C931C971A965C9398
:1018D0004E931997ED91FC910484F585E02D60E01D
:1018E0001994DC01ED91FC910684F785E02D41E02F
:1018F000199581E090E0089508950895FC01538DB5
:10190000448D252F30E0842F90E0821B930B5417D9
:1019100010F0CF96089501970895FC01918D828D66
:10192000981761F0828DDF01A80FB11D5D968C9133
:10193000928D9F5F9F73928F90E008958FEF9FEF3E
:101940000895FC01918D828D981731F0828DE80FFA
:10195000F11D858D90E008958FEF9FEF0895FC01B4
:10196000918D228D892F90E0805C9F4F821B910981
:101970008F73992708958EEF95E0F1DF21E0892B91
:1019800009F420E0822F0895FC01848DDF01A80F67
:10199000B11DA35ABF4F2C91848D90E001968F7397
:1019A0009927848FA689B7892C93A089B1898C91B6
:1019B00080648C93938D848D981306C00288F3897C
:1019C000E02D80818F7D80830895EF92FF920F93A9
:1019D0001F93CF93DF93EC0181E0888F9B8D8C8DDB
:1019E000981305C0E889F989808185FD23C0F62E0A
:1019F0000B8D10E00F5F1F4F0F731127E02E8C8DA2
:101A0000E8120BC00FB607FCFACFE889F98980818C
:101A100085FFF5CFCE01B8DFF2CF8B8DFE01E80F49
:101A2000F11DE35AFF4FF0820B8FEA89FB89808119
:101A3000806207C0EE89FF896083E889F989808127
:101A40008064808381E090E0DF91CF911F910F91BE
:101A5000FF90EF900895CF93DF93EC01888D88235A
:101A6000C1F0EA89FB89808185FD05C0A889B98913
:101A70008C9186FD0EC00FB607FCF5CF808185FFE7
:101A8000F2CFA889B9898C9185FFEDCFCE017CDF9B
:101A9000E8CFDF91CF91089580E090E0892B19F095
:101AA0006ADF811125C080E090E0892B41F080E061
:101AB00090E0892B21F00E94000081111CC080E081
:101AC00090E0892B41F080E090E0892B21F00E948A
:101AD0000000811113C080E090E0892BA1F080E02C
:101AE00090E0892B81F00E94000081110AC00895C6
:101AF0000E940000D8CF0E940000E1CF0E940000A9
:101B0000EACF0C9400000895DC015996ED91FC9108
:101B10005A973097B9F083899489A589B689428507
:101B2000538564857585841B950BA60BB70B8115B2
:101B300020E89207A105B10538F08FEF9FE7A0E0FC
:101B4000B0E0089580E090E008950E94E92DEF92C2
:101B5000FF920F931F93CF938C01FC01759684E045
:101B6000C0E060FF02C09081C92B6695815031961C
:101B70008111F7CF413011F4F8014489F8018585CE
:101B8000C82BC42B7801FEE0EF0EF11CF80162892E
:101B90006C2BC70102D7F801628960956C23C701DD
:101BA000CF911F910F91FF90EF90F7C60F931F9366
:101BB000CF93DF93062F0F70423019F440E0602F6F
:101BC0000FC0142F262FEC0130E0B90184E0759589
:101BD00067958A95E1F7CE01BADF412F602FCE01DC
:101BE000DF91CF911F910F91B2CFFC0184858823A3
:101BF000A1F0218532852115310519F4611106C046
:101C000007C02130310521F4611102C0858701C070
:101C100015866585CF010E96C0C60895FC01818D9D
:101C2000928D009709F0BCCA0895FC01818D928DB8
:101C3000009709F085C98FEF9FEF08950F931F93C9
:101C4000CF93DF93EC0188819981009729F02A8155
:101C50003B812617370788F48B016F5F7F4F0E9407
:101C6000052D009761F0998388831B830A832C815B
:101C70003D81232B11F4FC01108281E001C080E042
:101C8000DF91CF911F910F910895CF93DF93EC01D6
:101C900088819981009711F00E946D2C1982188219
:101CA0001D821C821B821A82DF91CF910895EF92D0
:101CB000FF920F931F93CF93DF93EC01FB018617E5
:101CC0009707A9F0008111810115110531F0E48019
:101CD000F580B701B3DF811103C0CE01D6DF07C0A5
:101CE000FD82EC82B801888199810E940E2ECE017E
:101CF000DF91CF911F910F91FF90EF900895DC013C
:101D0000ED91FC910684F785E02D40E0199461E0A7
:101D1000F6DF8BE39FE10197F1F708950F931F938F
:101D2000CF93DF93EC01423018F08C8188608C8374
:101D30004F836887222329F0413019F48C81846015
:101D40008C8364E670E080E090E08BD76C8164FD6A
:101D500031C0E881F9810684F785E02D42E063E037
:101D6000CE0119950BE416E4C8010197F1F7E8815B
:101D7000F9810684F785E02D42E063E0CE011995F4
:101D8000C8010197F1F7E881F9810684F785E02D14
:101D900042E063E0CE01199583E592E00197F1F707
:101DA000E881F9810684F785E02D42E062E0CE010A
:101DB000199513C06062CE01A2DF8BE496E401970F
:101DC000F1F76C816062CE019ADF83E592E00197C2
:101DD000F1F76C816062CE0192DF6C816062CE01AE
:101DE0008EDF84E08D836CE0CE0189DFCE018FDF52
:101DF00082E08E8366E0CE0182DFE881F98104848F
:101E0000F585E02D6FEFCE01DF91CF911F910F91FE
:101E10001994FF920F931F93CF93DF93EC01162F2A
:101E2000042FF22E8B85888B109277031092760305
:101E30001092C8031092E9031092C60381E08093C8
:101E4000C5031092A00361E084E17BD661E085E1E7
:101E500078D68091B9008E7F8093B9008091B900C7
:101E60008D7F8093B90088E48093B80085E48093E7
:101E7000BC0088899091C6039111FCCF91E09093AA
:101E8000C6039093C5032FEF2093C4031092C3039E
:101E90001092C2039093A1039091A103880F892B04
:101EA0008093A1038091A003813061F41092A0037C
:101EB0008091A1038093BB008091BC0083FDF8CF8B
:101EC00085EC01C085EE8093BC008091C603813013
:101ED000E1F38091C303811103C08091C30301C06A
:101EE00081E0A2EAB3E028E733E0F9019E2F921BDC
:101EF000981718F49D919193F9CF109277038093DE
:101F0000760391E0811101C090E0998B86EE96E016
:101F10000E9476018E878989882331F01F861C8272
:101F200060E0CE010E9639D52F2D402F612FCE01C6
:101F3000DF91CF911F910F91FF90F0CE1F920F92E2
:101F40000FB60F9211240BB60F922F933F934F931E
:101F50005F936F937F938F939F93AF93BF93EF9311
:101F6000FF938EEF95E010DDFF91EF91BF91AF9160
:101F70009F918F917F916F915F914F913F912F91A1
:101F80000F900BBE0F900FBE0F901F9018951F92D1
:101F90000F920FB60F9211240BB60F922F938F93BF
:101FA0009F93EF93FF93E0910E06F0910F068081CF
:101FB000E0911406F091150682FD12C09081809187
:101FC00017068F5F8F7320911806821751F0E091EA
:101FD0001706F0E0E250FA4F958F8093170601C084
:101FE0008081FF91EF919F918F912F910F900BBE68
:101FF0000F900FBE0F901F901895CF92DF92EF9227
:10200000FF920F931F93CF93DF93CDB7DEB729973E
:102010000FB6F894DEBF0FBECDBF8C01DC01189661
:102020008D919C911997892B09F4A1C0F5D5F801E0
:10203000C684D784E088F188DC01CB018C199D0926
:10204000AE09BF098C329140A105B10578F3F8942F
:10205000D80114968D919C9115979A83898318962F
:10206000ED91FC9119977F01BFEFEB1AFB0A80817C
:102070008987F80190810288F389E02DD801549670
:102080008C91992309F430C09081982B9887908186
:10209000809589238F838F818C8388E08B835885FB
:1020A0006F8149853B812C8189819A81D701508339
:1020B00047FD252F3A952083262F39F0441F00C075
:1020C00000006083000000C0F2CF38E04D916083D3
:1020D0000000019761F7D8015396FC93EE93529755
:1020E00049873B832C833AC09081982B98879081B5
:1020F000809589238F838F818E8388E08D83588597
:102100006F8149853D812E8189819A81D7015083D4
:1021100047FD252F00C000C0208300C000C000C0C4
:1021200000C000C060830000262F3A9541F0441F94
:10213000000000C000C000C000C000C0E8CF38E010
:102140004D9100C0608300C0019709F7D8015396F4
:10215000FC93EE93529749873D832E839A8389831C
:1021600078945AD5F80166877787808B918B29966A
:102170000FB6F894DEBF0FBECDBFDF91CF911F9198
:102180000F91FF90EF90DF90CF9008951F920F92E4
:102190000FB60F9211240BB60F922F933F934F93CC
:1021A0005F936F937F938F939F93AF93BF93CF93DF
:1021B000DF93EF93FF932091F30630E0F901E45CA5
:1021C000FE4F8491F901EE56FE4FD491F901EE5085
:1021D000FE4FC491CC2399F081115DD4EC2FF0E037
:1021E000EE0FFF1FE85FFE4FA591B491EC91ED2338
:1021F00031E020E009F430E0832F922F02C080E02C
:1022000090E02091F7063091F8062F5F3F4F309312
:10221000F8062093F7062091F606253618F026E0FA
:102220002093F2062091F2062430D9F128F42230CE
:1022300069F02330D9F060C0253009F453C026304E
:1022400009F05AC021E02093C30753C0009709F05A
:1022500053C02091F7063091F8062436310508F472
:1022600043C01092C3071092F6061DC0813091053D
:1022700009F042C0E091F60621E02E0F2093F60609
:10228000F0E02091F7063091F806EE0FFF1FEE50B8
:10229000F94F308727831092F8061092F70624E052
:1022A00029C00097B9F4E091F60621E02E0F2093A3
:1022B000F606F0E02091F7063091F806EE0FFF1FCA
:1022C000EE50F94F308727831092F8061092F706E8
:1022D00023E010C02091F7063091F806253631052D
:1022E00058F007C0009741F41092F8061092F706D4
:1022F00003C025E02093F2062091F5062223B1F0D9
:10230000892B51F48091F406882321F08091F40602
:1023100061E009C02F9A0AC08091F406882329F051
:102320008091F40660E00DD401C02F98FF91EF91E9
:10233000DF91CF91BF91AF919F918F917F916F91DD
:102340005F914F913F912F910F900BBE0F900FBE59
:102350000F901F901895CF92DF92EF92FF92CF933C
:10236000DF93EC01072E000C880B990B0E942A29A1
:102370006B017C0120E030E040E45FE30E948929AA
:1023800020E030E048E452E40E94BB2A0E94232B64
:10239000C617D707D4F020E030E040EA5FE3C7017A
:1023A000B6010E94892920E030E048E452E40E940E
:1023B000BB2A20E030E040E85FE30E94572A0E94F9
:1023C000232B21E06C177D070CF420E0822F90E096
:1023D000DF91CF91FF90EF90DF90CF900895AF9273
:1023E000BF92CF92DF92EF92FF920F931F93CF9302
:1023F000DF93CDB7DEB72B970FB6F894DEBF0FBED5
:10240000CDBF7C01FC0185818111C1C0CE01019647
:102410006C01FC0190E28BE08C0D91938E13FDCF4B
:10242000DA0120E037E09D91992339F19E3219F0CD
:10243000E2E8F1E00AC03A3009F4A9C028E03AE045
:10244000F2CF3196891709F4A2C084918111F9CF96
:10245000321708F49CC08FED890F8E3508F097C0B5
:1024600081E0820FF601E20FF11D2FE9290F2A31D9
:1024700008F490529083282FD6CF8981803209F4B6
:1024800086C08B01FB01838D948DF701948F838F20
:10249000FB01168217821086118612861386148617
:1024A0001586A12CF80182859385A485B58543897D
:1024B00054896589768984179507A607B70708F0B8
:1024C00066C025E0B695A795979587952A95D1F78B
:1024D000F82FFF70BF2EF8018581823008F457C0B5
:1024E000C8010E94A00797FD52C0F801828593851C
:1024F000A485B5854F96A11DB11D82879387A487BA
:10250000B587F0E2BF9EC0011124BC0162507C4F30
:1025100061157105E1F1FB0120812223B1F1253E16
:10252000D9F04BE050E0C6010E94ED2D892B09F057
:10253000B9CF6B2DC7012B960FB6F894DEBF0FBE37
:10254000CDBFDF91CF911F910F91FF90EF90DF9062
:10255000CF90BF90AF90FCC6A11014C0F701B28A13
:1025600040910202509103026091040270910502B1
:1025700046875787608B718BFC01E250FC4F80814E
:10258000882329F0AA24A3948DCFAA2039F380E0D0
:102590002B960FB6F894DEBF0FBECDBFDF91CF9163
:1025A0001F910F91FF90EF90DF90CF90BF90AF9071
:1025B0000895CF93DF93FC012581222311F080E061
:1025C00049C0EC018091BE068031C1F482E0858370
:1025D000178A108E118E128E8091BF069091C006C0
:1025E000A0E0B0E025E0880F991FAA1FBB1F2A9525
:1025F000D1F7838B948BA58BB68B19C08032F9F6FB
:1026000083E085834091C1065091C2066091C30664
:102610007091C406478B508F618F728F9F012D5E22
:102620003F4F87EA96E00E94A305882341F287EA9C
:1026300096E09C8F8B8F81E08C831E821F82188690
:1026400019861A861B861C861D861E861F86188A7A
:10265000198A1A8ADF91CF9108958F929F92AF9233
:10266000BF92CF92DF92EF92FF92CF93DF93C82F6A
:102670008BE996E09093FB038093FA03CC2369F1F6
:10268000C53010F080E00DC140E060E070E0CB01AB
:102690000E943A048823B1F320E1C29FC0011124B3
:1026A00082519C4FFC01E254FE4F20812F7751F75D
:1026B0003C964081518162817381443651056105A8
:1026C000710500F33497C080D180E280F380C1149B
:1026D000D104E104F10421F4D5CFC12CD12C760131
:1026E00040E0C701B6010E943A04882359F2809164
:1026F000090490910A048115924021F6A0910E04DC
:10270000AA2309F4BFCF60910C0470910D046115E8
:10271000710509F4B7CF20910B04222309F4B2CF3D
:10272000A093B9062093AB0680E030E0E1E0F0E052
:10273000C82FAF01082E02C0440F551F0A94E2F7BC
:102740002417350741F0982F8F5F983089F789E07B
:102750008093B40697CF8093B406209114043091EF
:1027600015042115310519F040E050E008C0209112
:102770002204309123044091240450912504209395
:10278000AC063093AD064093AE065093AF064601BB
:102790005701860E971EA11CB11C8092BA0690921A
:1027A000BB06A092BC06B092BD06E0910F04F0916A
:1027B0001004F093C006E093BF06B0E00E943D2AEB
:1027C000860E971EA81EB91E8092C1069092C20660
:1027D000A092C306B092C40685E0EE0FFF1F8A9553
:1027E000E1F7E150FE4FEF2FFF27E6958E0E9F1E7B
:1027F000A11CB11C8092B5069092B606A092B706B5
:10280000B092B806209111043091120421153105BF
:1028100021F0A90160E070E008C040911E045091D1
:102820001F046091200470912104D701C60188190A
:102830009909AA09BB09840F951FA61FB71F04C0D9
:10284000B695A79597958795CA95D2F78093B006C8
:102850009093B106A093B206B093B306853F2FE0E4
:102860009207A105B10510F48CE018C0853F9F4F79
:10287000A105B10510F480E111C080912A04909166
:102880002B04A0912C04B0912D048093C106909349
:10289000C206A093C306B093C40680E28093BE062E
:1028A00081E0DF91CF91FF90EF90DF90CF90BF90CC
:1028B000AF909F908F9008958F929F92AF92BF920A
:1028C000CF92DF92EF92FF920F931F93CF93DF93FC
:1028D000FC01C081D1812091F6033091F703C2172A
:1028E000D3070CF048C09E01220F331FE091F40380
:1028F000F091F503E20FF31F80809180C170DD2716
:10290000F1E0CF27209719F404E610E002C00CE9AB
:102910001FEF7A015B016C01040F151FB801C401A0
:102920001ADD892B89F40E0D1F1DB801C40113DDBA
:10293000892B69F4B8016E0D7F1DC4010CDD892B54
:10294000E9F023E030E005C021E030E002C022E001
:1029500030E0F501808191810196821793073CF068
:10296000F50111821082F601808191810196918397
:102970008083CE0105C081E090E002C08FEF9FEF21
:10298000DF91CF911F910F91FF90EF90DF90CF904B
:10299000BF90AF909F908F900895CF93FC012381BB
:1029A000222309F46EC09181909569236083C281CE
:1029B00081E08093C703C093FD031092C803109277
:1029C000E90386EE96E00E94F7018091E9038132E7
:1029D00008F04AC02091C6032111FCCF92E09093E9
:1029E000C60391E09093C5039FEF9093C4031092A8
:1029F000C3038093C203A9ECB3E042EA53E0FA01B7
:102A00009E2F941B981718F49D919193F9CF1092D3
:102A1000A1038091A103CC0FC82BC093A103809187
:102A2000A003813061F41092A0038091A1038093F0
:102A3000BB008091BC0083FDF8CF85EC01C085EE22
:102A40008093BC008091C6038230E1F38091C4037F
:102A50008F3F79F08091C403803241F08091C403AC
:102A6000803331F024E005C021E003C022E001C042
:102A700023E01092C8031092E9031092C70330E0DC
:102A800002C020E030E081E090E0232B11F080E0F4
:102A900090E0CF91089590E0FC013197E231F1058B
:102AA00008F04EC08827EE58FF4F8F4F0C94992B9B
:102AB000809180008F7703C0809180008F7D80930C
:102AC0008000089580918000877FF9CF84B58F774B
:102AD00002C084B58F7D84BD08958091B0008F774A
:102AE00003C08091B0008F7D8093B00008958091E5
:102AF00090008F7707C0809190008F7D03C08091F8
:102B00009000877F8093900008958091A0008F7738
:102B100007C08091A0008F7D03C08091A000877FB7
:102B20008093A0000895809120018F7707C0809145
:102B300020018F7D03C080912001877F8093200139
:102B400008951F93CF93DF93282F30E0F901E45CC1
:102B5000FE4F8491F901EE56FE4FD491F901EE50EB
:102B6000FE4FC491CC23C1F0162F811194DFEC2FBE
:102B7000F0E0EE0FFF1FE852FE4FA591B4918FB722
:102B8000F894111105C09C91ED2FE095E92302C046
:102B9000EC91ED2BEC938FBFDF91CF911F910895B6
:102BA000CF93DF9390E0FC01EE56FE4F2491FC01A1
:102BB000EE50FE4F8491882361F190E0880F991FB9
:102BC000FC01EE5DFE4FC591D491FC01E852FE4F31
:102BD000A591B491611109C09FB7F894888120959F
:102BE00082238883EC912E230BC0623061F49FB75F
:102BF000F8943881822F809583238883EC912E2B43
:102C00002C939FBF06C08FB7F894E8812E2B2883A2
:102C10008FBFDF91CF9108953FB7F89480919C03C7
:102C200090919D03A0919E03B0919F0326B5A89B10
:102C300005C02F3F19F00196A11DB11D3FBFBA2F4E
:102C4000A92F982F8827820F911DA11DB11DBC01AE
:102C5000CD0142E0660F771F881F991F4A95D1F773
:102C600008958F929F92AF92BF92CF92DF92EF9290
:102C7000FF926B017C01D0DF4B015C01C114D104D8
:102C8000E104F104E9F0C8DFDC01CB0188199909FE
:102C9000AA09BB09883E9340A105B10578F321E05C
:102CA000C21AD108E108F10888EE880E83E0981E68
:102CB000A11CB11CC114D104E104F10421F7DECF41
:102CC000FF90EF90DF90CF90BF90AF909F908F904C
:102CD00008952FB7F89460919803709199038091AB
:102CE0009A0390919B032FBF0895009769F0FC0110
:102CF00001900020E9F73197AF01481B590BBC0147
:102D000085EC97E00C94320C80E090E008952F92CF
:102D10003F924F925F926F927F928F929F92AF926B
:102D2000BF92CF92DF92EF92FF920F931F93CF93B8
:102D3000DF9300D01F92CDB7DEB7CBDF009116082E
:102D4000109117082091180830911908DC01CB0167
:102D5000801B910BA20BB30B00911208109113086A
:102D60002091140830911508081719072A073B0706
:102D700008F05FC2AEDF6093160870931708809367
:102D800018089093190880910E0890910F088330CD
:102D9000910509F45EC05CF481309105A1F00297C1
:102DA00009F047C2E12CF12C03E010E041C085306E
:102DB000910509F4A6C10CF45AC0069709F039C26E
:102DC00000E010E027C200E010E0E12CF12C60915F
:102DD000FB077091FC07E616F70608F0F5C1C8017D
:102DE0000E94632B80912408860F0E94FD0BAB018B
:102DF000BC01C70136D32FEFE21AF20A1395E7CFD1
:102E000080912408909125088E0D9F1DB8010E9485
:102E1000632B892BA9F440911A0850911B086091EB
:102E20001C0870911D08C7011CD33FEFE31AF30A79
:102E30008091FB079091FC07E816F90608F3C4C1DE
:102E400040911E0850911F08609120087091210840
:102E5000EACF40911A0850911B0860911C087091AC
:102E60001D088091240890912508FBD2ADC1C12C8A
:102E7000D12CE12CF12C00E010E08091FB07909127
:102E8000FC070817190708F09FC12091240830910A
:102E900025080217130749F0809122089091230812
:102EA000821B930B0817190749F440911A08509197
:102EB0001B0860911C0870911D0818C1209106081C
:102EC000209003084091010850910208809000086A
:102ED000822F90E0A0910408A983B0910508BA83DD
:102EE000221160C01A012C0C3D1C882009F442C03C
:102EF000912CA12CB12CF101E80FF91F608170E039
:102F0000762F6627072E000C880B990BA5019401DC
:102F10000E94772B390155244424F1012981E20FC5
:102F2000F11D608170E0762F6627072E000C880B5C
:102F3000990BA50194010E94772BB42FA32F922FF8
:102F40008827482A592A6A2A7B2AD1013A81A30F65
:102F5000B11D6C9170E0762F6627072E000C880B50
:102F6000990BA50194010E94772B422A532A642AC7
:102F7000752A96C0F101E80FF91F8081F10199814E
:102F8000E90FF11D4080512C612C712C762C652CA1
:102F9000542C4424682AD101EA81AE0FB11D8C91D2
:102FA000482A7EC09A012E0D3F1D3C832B83312C75
:102FB000882009F45CC0912CA12CB12CF901E80FF8
:102FC000F91F608170E0762F6627072E000C880BB2
:102FD000990BA50194010E94772B722E662455242B
:102FE0004424EB81FC81E20DF31D608170E0762FBB
:102FF0006627072E000C880B990BA50194010E94EF
:10300000772BD90199278827482A592A6A2A7B2AA7
:10301000EB81FC813A81E30FF11D608170E0762F36
:103020006627072E000C880B990BA50194010E94BE
:10303000772B422A532A642A752AAB81BC81898165
:10304000A80FB11D6C9170E0762F6627072E000C3B
:10305000880B990BA50194010E94772BB42FA32F05
:10306000922F8827482A592A6A2A7B2A19C0EB817D
:10307000FC81E20DF31D4080512C612C712C32013A
:1030800055244424EB81FC819A81E90FF11D808154
:10309000482AAB81BC81E981AE0FB11D8C91582AC1
:1030A000462D50E055954795052E000C660B770B85
:1030B000BA0155274427852D90E095958795092ECF
:1030C000000CAA0BBB0BBA2FA92F982F8827482BCF
:1030D000592B6A2B7B2B512C55944794052C000CB3
:1030E000660877084429552966297729C801B9D186
:1030F0000F5F1F4FF4E0EF0EF11C23E0C20ED11C56
:10310000BCCE40911A08F0901B0850911C082091E9
:10311000220830912308E0912408F09125085901F4
:10312000AE1ABF0A10911E08E0901F088091200877
:103130008E9FB0018F9F700D11245A9DC0015B9D21
:10314000900D1124860F971FB9010E94632B062F43
:10315000EE9EB001EF9E700D1124FA9CC001FB9C05
:10316000900D1124860F971FB9010E94632BC62E64
:10317000D12CE12CF12CFE2CED2CDC2CCC24E02AE3
:103180001E9FB0011F9F700D11244A9DC0014B9DD1
:10319000900D1124860F971FB9010E94632BC62A38
:1031A00000E010E08091FB079091FC0708171907D9
:1031B00038F4B701A601C80154D10F5F1F4FF2CFF9
:1031C00089EF97E00E94FD0F89EF97E00E94FD0FC5
:1031D0000F900F900F900F90DF91CF911F910F9153
:1031E000FF90EF90DF90CF90BF90AF909F908F9027
:1031F0007F906F905F904F903F902F90FFC040E086
:1032000050E0BA01C8012DD10F5F1F4F011531E009
:103210001307D1F2F801E750F84F85A5813079F70F
:1032200040911A0850911B0860911C0870911D086C
:10323000E9CF0F900F900F900F90DF91CF911F91DA
:103240000F91FF90EF90DF90CF90BF90AF909F9045
:103250008F907F906F905F904F903F902F90089548
:1032600044CDCF93DF93CDB7DEB728970FB6F89450
:10327000DEBF0FBECDBF1D8290E49E8324E12F836D
:1032800024E5288719829A8390E19B8390E59C83AB
:103290002091CC07821710F08FEF820F3091CD076D
:1032A00090E0FE01E80FF91F303121F4243011F4D1
:1032B000618101C06581606885EC97E028960FB652
:1032C000F894DEBF0FBECDBFDF91CF910C947F0E7F
:1032D0008F929F92AF92BF920F931F93CF93DF93E2
:1032E000CDB7DEB7A1970FB6F894DEBF0FBECDBF46
:1032F00019A2423008F44AE08E010F5D1F4F842E60
:10330000912CA12CB12CA50194010E94772BE62FC2
:10331000B901CA0101501109EA3014F4E05D01C09D
:10332000E95CD801EC93232B242B252B61F7C801F2
:10333000DCDCA1960FB6F894DEBF0FBECDBFDF91E7
:10334000CF911F910F91BF90AF909F908F90089554
:10335000CF93DF93EC016A8B80910202909103027C
:10336000A0910402B09105028E879F87A88BB98B2C
:1033700080E2689FF0011124E250FC4F4489558996
:1033800060E070E0BA01552744274F8B588F698F52
:103390007A8F828D938DA0E0B0E0482B592B6A2B59
:1033A0007B2B4F8B588F698F7A8F8385887151F46F
:1033B000848D958DA68DB78D8B8B9C8BAD8BBE8BA5
:1033C00081E00EC0803111F080E015C09E012D5EBD
:1033D0003F4F8B8D9C8D0E94A3058823A9F384E029
:1033E0008D8381E08C831E821F82188619861A863F
:1033F0001B861C861D86DF91CF91089520911008B1
:10340000309111088091240890912508232B89F48C
:1034100001969093250880932408209122083091EA
:10342000230882179307E0F01092250810922408D1
:1034300010C001979093250880932408892B81F46C
:1034400080912208909123080197909325088093FA
:103450002408E0912609F0912709309709F0199482
:1034600008958F929F92AF92BF92CF92DF92EF9288
:10347000FF922091FB073091FC078217930708F019
:1034800052C04B01AA24BB24E82DC52ED62EE72E10
:10349000FF24FC2D342F20910008222361F0829E0E
:1034A00040011124E92DC29E60011124FD2D429F8F
:1034B000D00111243B2FF0900608E0900308A09162
:1034C0000108B0910208FE1008C0AC01440F551F5E
:1034D000840F951F8A0F9B1F14C0880F991F880F98
:1034E000991F8A0F9B1F472F552766277727DC01D7
:1034F000AF0DB11D222321F0429FA0011124452FC1
:103500004C9320910308DC01A20FB11DEC93209194
:103510000408DC01A20FB11DFC9320910508FC01F9
:10352000E20FF11D3083FF90EF90DF90CF90BF90BE
:10353000AF909F908F9008951F920F920FB60F92A9
:1035400011242F933F938F939F93AF93BF938091B9
:10355000980390919903A0919A03B0919B033091A5
:10356000280923E0230F2D3720F40196A11DB11D5A
:1035700005C026E8230F0296A11DB11D209328093E
:103580008093980390939903A0939A03B0939B031D
:1035900080919C0390919D03A0919E03B0919F0305
:1035A0000196A11DB11D80939C0390939D03A09350
:1035B0009E03B0939F03BF91AF919F918F913F91D5
:1035C0002F910F900FBE0F901F901895CF93DF9300
:1035D000CDB7DEB7C658D1090FB6F894DEBF0FBE1F
:1035E000CDBF789484B5826084BD84B5816084BD8C
:1035F00085B5826085BD85B5816085BD80916E0091
:10360000816080936E0010928100809181008260C1
:1036100080938100809181008160809381008091FE
:1036200080008160809380008091B10084608093ED
:10363000B1008091B00081608093B00080919100D2
:1036400082608093910080919100816080939100CD
:10365000809190008160809390008091A1008260B1
:103660008093A1008091A10081608093A10080914E
:10367000A00081608093A0008091210182608093EE
:10368000210180912101816080932101809120019D
:1036900081608093200180917A00846080937A0019
:1036A00080917A00826080937A0080917A008160B4
:1036B00080937A0080917A00806880937A001092DB
:1036C000C1008E010D581F4F8AE0E6E1F3E0D801FA
:1036D00001900D928A95E1F720E042E060E185ECEF
:1036E00097E00E94090F61E085EC97E00E94F50DDC
:1036F00062E085EC97E00E947F0E8BE39FE10197EB
:10370000F1F782E892E0ACDD81E0ABDD83E992E0A5
:10371000A7DD68EE73E080E090E0A3DA85EC97E047
:103720000E94870E80E09DDD89E992E099DDF894A2
:1037300082E08093B0008093B10094E69093B30050
:103740001092B2008093700078948093F2061092E9
:10375000F6068091F30660E023DA68EE73E080E01D
:1037600090E07FDA85EC97E00E94870E80E079DDBB
:103770008AEA92E075DD61E085E312DA61E085E3D3
:10378000E0D968EE73E080E090E06BDA85EC97E0DA
:103790000E94870E8091CA06882321F085EC96E06E
:1037A0000E940C091092A6061092A4061092A1067F
:1037B0001092A00685E380939F068BDA7B0161E07F
:1037C00080919F06EDD961E080919F06BAD9BFB67E
:1037D000F89480912003811123C0E7E2F2E0849104
:1037E000E7ECF1E09491E82FF0E0EE0FFF1FEE5DC3
:1037F000FE4FA591B491EC91E92319F461E085E3C2
:10380000A0D961E085E3CCD98CB580618CBD8CB545
:1038100080648CBD61E084E3C3D961E083E3C0D9F7
:10382000809120038F5F80932003BFBE82E5809349
:10383000E4061092E5068091E4069091E5060E9468
:10384000A2025AE0B52E8FEF0E945B02BA94B1102B
:10385000FACF0E947E028BE996E00E94A50220E04A
:1038600030E0A90160E08BE996E00E94BA02B82E30
:103870008093A50631E0831741F02BDA6E197F099A
:10388000613D774060F381E055C02AEA31E040E0D5
:1038900050E068E08BE996E00E94BA0282FF03C024
:1038A000B092A60610C044E0B42E0E94620280933B
:1038B000A506BA94B110F9CF8A3A11F082E03AC065
:1038C00082E08093A6068091A606823021F0812CAA
:1038D000912C540105C0812C912CA12C30E4B32EE5
:1038E00020E030E0A90167E38BE996E00E94BA028C
:1038F000A501940169E28BE996E00E94BA028093E7
:10390000A506882341F0E5D96E197F09613D77400E
:1039100038F388E00FC08091A606823001F520E0E0
:1039200030E0A9016AE38BE996E00E94BA0288239D
:1039300041F086E08093A0068BE996E00E947F022A
:1039400028C00E946202807C803C19F483E080934E
:10395000A6060E9462020E9462020E9462028BE935
:1039600096E00E947F0280E58093E4061092E506CF
:1039700081E00E942D13882339F085EC96E00E94A7
:10398000D912882331F00FC080E00E942D138111DD
:10399000F4CF80E066DC8BEB92E062DC10922703D0
:1039A000109226030BC080E05CDC84EC92E058DCD3
:1039B00081E090E0909327038093260368EE73E004
:1039C00080E090E04ED985EC97E00E94870E1EAE15
:1039D0001DAE82E292E09CAF8BAF21961FAE219785
:1039E00019A218A29F8F8E8F1BA2712C612C7E01B1
:1039F0009BE3E90EF11C95EC892E96E0992EC158B7
:103A0000DF4FE882CF57D040C058DF4FF882C05810
:103A1000D04022E2A22E22E0B22EDE0111961D013C
:103A2000272D362DF801E20FF31F80818F3211F41C
:103A30002F5F3F4FFE01E85AFF4F80E090E0D80132
:103A4000A20FB31F4C914F3249F0442339F0019635
:103A50002F5F3F4F41938C30910589F7E8E5F0E007
:103A6000EC0FFD1FE80FF91F1082F801E20FF31FA2
:103A700080818F3211F42F5F3F4F722E632EF80139
:103A8000E20FF31F50801C821B82BA82A9821E8221
:103A9000AE01485A5F4FB401C1010E94EF11882363
:103AA00031F0C1010E940C0951100AC022C0F5EC8E
:103AB0008F16F6E09F0651F1C4010E940C0926C042
:103AC000AE01485A5F4FB401C7010E94EF11582E52
:103AD00025EC821626E0920609F4BBC7C4010E94B9
:103AE0000C09552099F0982D892D4701E92EF82EC3
:103AF00097CF35EC831636E0930619F0C4010E9487
:103B00000C0980E0AEDB8AEC92E004C080E0A9DB27
:103B100089ED92E0A5DB68EE73E080E090E0A1D84B
:103B200019A218A282E292E09F8F8E8F1BA21C82A4
:103B30001B829A8389831E82CE014E960E94D912DF
:103B4000722C632CCE014E967C0148016FE270E02E
:103B5000C4010E94032E009709F444C0D4012C91A3
:103B60002F3249F4BFEF8B1A9B0AC3017E2C6F2CB6
:103B7000E92EF82E31C088198D3008F08CE0A82E7F
:103B8000B12CA501B401CE01885A9F4F0E94152E79
:103B9000E8E5F0E0EC0FFD1FEA0DFB1D1082872D1C
:103BA000962D0E940C09AE01485A5F4FB701872D30
:103BB000962D0E94EF1181110AC01EAE1DAE82E249
:103BC00092E09CAF8BAF21961FAE219759C08A0C13
:103BD0009B1CC7010E940C099E2D8F2DE72CF62CF3
:103BE0003C01B4CF6401C01AD10AF70182819381EC
:103BF0009EAF8DAF82E292E09CAF8BAF84818FAF9E
:103C0000858121968FAF219786819781A085B18587
:103C100025968CAF9DAFAEAFBFAF259782859385BC
:103C2000A485B58529968CAF9DAFAEAFBFAF299760
:103C300086859785A089B1892D968CAF9DAFAEAF53
:103C4000BFAF2D9782892E968FAF2E978389948947
:103C5000A589B68962968CAF9DAFAEAFBFAF6297B4
:103C60008789908DA18DB28D66968CAF9DAFAEAFDA
:103C7000BFAF6697838D948D68969FAF8EAF689720
:103C80000C0D1D1DD8018C9181114DC08DAD9EADC7
:103C90009C838B8382E292E09A8389838FAD8D83AC
:103CA00021968FAD21978E8325968CAD9DADAEADBF
:103CB000BFAD25978F839887A987BA8729968CAD42
:103CC0009DADAEADBFAD29978B879C87AD87BE8775
:103CD0002D968CAD9DADAEADBFAD2D978F87988BDA
:103CE000A98BBA8B2E968FAD2E978B8B62968CAD4F
:103CF0009DADAEADBFAD62978C8B9D8BAE8BBF8BF8
:103D000066968CAD9DADAEADBFAD6697888F998F31
:103D1000AA8FBB8F68968EAD9FAD68979D8F8C8F55
:103D20004BEE52E07AC019A218A282E2E82E82E09D
:103D3000F82EFF8EEE8E1BA221968FAD219781115A
:103D400016C06C961FAE1EAE6C9788EE93E0A0E096
:103D5000B0E0A0968CAF9DAFAEAFBFAFA097E3969B
:103D60001FAE1EAEE397A5961FAEA5975CC0A80137
:103D7000C158DF4F6881CF57D040C058DF4F78819E
:103D8000C058D040CE014E960E94EF118823C9F250
:103D9000C158DF4F8881CF57D040C058DF4F98813E
:103DA000C058D0400E940C0988A199A19C838B83A4
:103DB000FA82E9828AA18D838BA18E838CA19DA139
:103DC000AEA1BFA18F839887A987BA8788A599A537
:103DD000AAA5BBA58B879C87AD87BE878CA59DA513
:103DE000AEA5BFA58F87988BA98BBA8B88A98B8B23
:103DF00089A99AA9ABA9BCA98C8B9D8BAE8BBF8BD3
:103E00008DA99EA9AFA9B8AD888F998FAA8FBB8FB6
:103E100089AD9AAD9D8F8C8FA801B101CE01885AD2
:103E20009F4F0E9426026C968EAD9FAD6C9790932B
:103E3000E1078093E007A0968CAD9DADAEADBFAD20
:103E4000A0978093E2079093E307A093E407B093D1
:103E5000E507A4968CAD9DADAEADBFADA4978093A4
:103E6000E6079093E707A093E807B093E9078DE092
:103E7000E8E5F0E0EC0FFD1F3C96AAEEB7E00190FC
:103E80000D928A95E1F7E396EEADFFADE397F093DF
:103E9000F807E093F707309729F083899489A5897B
:103EA000B68903C080E090E0DC0190932303809307
:103EB000220385EC97E00E94870E80E0D2D98DEE38
:103EC00092E0CED9C0902203D09023030D2C000C99
:103ED000EE08FF08F7FE14C0E091C507F091C60791
:103EE0000190F081E02D6DE285EC97E01995662751
:103EF0007727CB016C197D098E099F094AE003C021
:103F00004AE0C701B601E4D968EE73E080E090E0D2
:103F10000E9431168091FF0787FD08C061E00E9472
:103F2000D01560E08091FF070E94A11581E0809389
:103F3000FA07809128030E94FD0B26E030E03093C1
:103F40000F0820930E0805E010E020E030E0009319
:103F5000120810931308209314083093150822E0D8
:103F600030E0309323082093220860931A0870935E
:103F70001B0880931C0890931D081092250810922E
:103F800024081092110810921008E6E2F8E011924D
:103F9000B9E0E632FB07D9F70E94871685EC97E077
:103FA0000E94870E80E05DD98AEF92E059D960EDDA
:103FB00077E080E090E00E94311644244A94542C2B
:103FC0003201E9EFF6E0F093F503E093F40380911A
:103FD000F60690E09093F7038093F6038091C30771
:103FE00090E09093F9038093F8038091F206853076
:103FF00009F06EC28091FB069091FC0688589109E9
:104000008D35910588F48091F606843041F48091D5
:10401000FD069091FE068097479708F47CC3809137
:10402000F606843408F05EC38091F6068A3108F4FF
:104030004FC08091F9069091FA06843F914068F450
:104040001092F3031092F2034092EE035092EF03AA
:104050006092F0037092F10359C08091FB06909139
:10406000FC0685974B97A0F5EFEFF6E082E090E035
:10407000C12CD12C7601AC014F5F5F4F2091F60629
:1040800030E0421753075CF4DF0112972D913C9109
:10409000275031092730310508F485C3CA0101973B
:1040A000959587959093F3038093F2030C972CF4E6
:1040B0001092F3031092F2030BC0C092EE03D09261
:1040C000EF03E092F003F092F10384E090E040C44B
:1040D0008091F6068A3108F44CC08091F9069091DF
:1040E000FA068032934008F4ABCF8091FB069091A2
:1040F000FC06C697869708F473C33BC0C092EE03D4
:10410000D092EF03E092F003F092F1038BE090E0A5
:104110001FC420813181255231092B31310508F02E
:104120006FC3CC0CDD1CEE1CFF1C6894C0F802961B
:104130003496AC014F5F5F4F2091F60630E0421796
:10414000530754F4DF0112972D913C912C50310903
:104150002B303105F0F2CA01019795958795909320
:10416000F3038093F2030C974CF61092F303109232
:10417000F2038091F606823208F44CC08091FB066F
:104180009091FC060697079708F044C0EFEFF6E021
:1041900082E090E040E050E0BA018C010F5F1F4FD9
:1041A0002091F60630E002171307DCF4DF011297C6
:1041B0002D913C9111972E5131092731310508F08D
:1041C0002CC3440F551F661F771F4160208131812A
:1041D0003496235031092530310510F40296DDCF95
:1041E000C8010197959587959093F3038093F20307
:1041F00040972CF41092F3031092F2030BC04093FB
:10420000EE035093EF036093F0037093F1038CE09F
:1042100090E09EC31F8E1E8EE1E0F0E0FA83E983FA
:104220008091F6068D3008F466C049E753E0BE0180
:10423000625E7F4FC1010E945C14892B09F05BC054
:1042400049E753E0BE01625E7F4FC1010E945C14EA
:10425000019709F050C049E753E0BE01625E7F4F0D
:10426000C1010E945C14892B09F045C0812C912C5E
:10427000540100E010E08091F60690E029813A8137
:10428000281739074CF549E753E0BE01625E7F4FBE
:10429000C1010E945C147C0149E753E0BE01625EEB
:1042A0007F4FC1010E945C14F1E0EF16F10449F464
:1042B000892B09F5880C991CAA1CBB1C689480F8F2
:1042C00008C0EF28C1F40197B1F4880C991CAA1C0E
:1042D000BB1C0F5F1F4FCFCF1093F3030093F2036C
:1042E0008092EE039092EF03A092F003B092F1035C
:1042F00021E030E0A4C31F8E1E8E81E090E09A83FF
:1043000089838091F6039091F703181619060CF033
:1043100053C0E091F403F091F50382E090E09A83BA
:1043200089838281938189974E9708F045C023E065
:1043300030E03A832983848195810B970A97E0F5D1
:104340004CEB51E0BE01625E7F4FC1010E945C14E4
:10435000892B91F54CEB51E0BE01625E7F4FC101AC
:104360000E945C14019741F5812C912C540100E0CE
:1043700010E029813A818091F6039091F703281784
:1043800039070CF08BC24CEB51E0BE01625E7F4FEF
:10439000C1010E945C146C010330110509F04AC28E
:1043A0004CEB51E0BE01625E7F4FC1010E945C1484
:1043B000C816D90609F43EC2E091F403F091F50362
:1043C00082819381C697869708F0C7C284819581C0
:1043D0004B97459708F0C1C2DF0116967F0136EC76
:1043E000E30EF11C20E030E040E050E060E070E0DF
:1043F00080E090E00D911C9111970950110908304F
:10440000110508F0AAC212960D911C911397015143
:1044100011090D30110508F050C201E00E94A12BD6
:1044200021601496AE15BF0529F72093EE03309353
:10443000EF034093F0035093F10300E20E94BC2B82
:104440002093EC033093ED0385E090E09093EB0331
:104450008093EA0380E390E09093F3038093F20368
:1044600085EC97E00E94870E80E00E9431198BE076
:1044700093E00E94301981E00E9431196091EE03AF
:104480007091EF038091F0039091F1034AE00E9454
:10449000681980912803909129030A968F3F91050E
:1044A00011F00CF0D1C290932903809328038091DE
:1044B00028030E94FD0B60931A0870931B088093D9
:1044C0001C0890931D0882E08093F2061092F60675
:1044D0008091260390912703019709F0FEC01F8E5B
:1044E0001E8E19A218A21BA21AA260E070E0CE01D3
:1044F0004E960E941E0E811105C0CE014E960E945E
:10450000450E08C01BA21AA269EF72E08E8D9F8D26
:104510000E940E2E8091F7079091F807009729F4DA
:104520008E8D9F8D0E946D2CD8C0DC0115962C912C
:104530002223B1F3409124035091250320912203BB
:10454000309123034217530724F010922503109251
:1045500024034091240350912503052E000C660B83
:10456000770B0E940B068EED97E00E94840D892B3D
:1045700009F453C08EED97E00E94150EF82E1A82B2
:1045800019821C821B821E821D82BE01625E7F4FC9
:10459000C1010E94570EFBAE1CAE0D811E810F5F44
:1045A0001F4FB801C1010E941E0E8823A9F0298166
:1045B0003A818D819E81C158DF4F6881CF57D040AD
:1045C000C058DF4F7881C058D040820F931F0E949F
:1045D0000E2E1E830D8303C0C1010E94450EB10142
:1045E000CE014E960E94570E89819A810E946D2CB1
:1045F000E091F707F091F807309729F082859385CD
:10460000A485B58503C08FEF9FEFDC019093250350
:1046100080932403BAE0FB12A6CF4AA15BA12E8DA2
:104620003F8D4115510519F02115310529F41092DE
:104630002103E1E2F3E001C0F9016081109201027F
:104640001092000281E090E0A0E0B0E01AE070ED8E
:10465000760F7A30F0F41A9FF0011B9FF00D1124B1
:10466000062E000C770B60537109DF01A60FB71FF0
:104670008417950718F42115310529F410922103A8
:10468000E1E2F3E003C0F901E80FF91F6081019650
:10469000DECFB0930102A0930002BC0168537F4FAC
:1046A000E6E2F8E011E08417950718F421153105CA
:1046B00029F410922103A1E2B3E003C0D901A80FAD
:1046C000B91FAC91A13311F4108301C0108202967E
:1046D00031968617970739F723CF0E9487160E94D5
:1046E0004C0D6FCC8091FD069091FE06825491098D
:1046F0008E9708F099CC80E090E040E050E0BA015D
:10470000FC01E150F94F20813181295031092930D4
:104710003105C0F089CC8091FF0690910007099780
:10472000099708F07CCC1092F3031092F2034092A8
:10473000EE035092EF036092F0037092F103E3E016
:10474000F0E0B1C1FC01EF5FF84F208131812751CA
:10475000310922313105D0F4440F551F661F771FF0
:10476000416004968038910559F620E230E030939C
:10477000F3032093F2034093EE035093EF0360930F
:10478000F0037093F10383E090E0E2C02081318177
:10479000265031092730310508F046CC440F551F0B
:1047A000661F771FDECF20813181235131092F30E1
:1047B000310548F4CC0CDD1CEE1CFF1C6894C0F8DD
:1047C0000296349658CC208131812A503109293003
:1047D000310508F07DCCCC0CDD1CEE1CFF1CF0CFAD
:1047E0008091FD069091FE06C697869708F0C1CC91
:1047F000E1E0F7E083E090E0C12CD12C760199CC88
:10480000208131812C5031092A30310508F0B1CC9A
:10481000CC0CDD1CEE1CFF1C8ACC2D913C912C5045
:1048200031092B30310508F0F5CC440F551F661FB8
:10483000771FCCCC4CEB51E0BE01625E7F4FC101D3
:104840000E945C147C010330110561F44CEB51E0D3
:10485000BE01625E7F4FC1010E945C14E816F9063A
:1048600009F0AACDC114D10459F4EA94EF2809F053
:10487000A3CD880C991CAA1CBB1C689480F80BC0A3
:10488000CA94CD2809F098CDEF2809F095CD880C71
:10489000991CAA1CBB1C0F5F1F4F6BCD1093F30319
:1048A0000093F2038092EE039092EF03A092F00344
:1048B000B092F10382E090E04BC012960D911C91F2
:1048C0001397045011090530110508F046C001E0A6
:1048D00038D7A7CDA80142505109DA014D915C911A
:1048E000495051094830510508F01EC1BC016F5FA5
:1048F0007F4FD8014D915C91475051094730510588
:1049000008F00CC3220F331F216002960C5F1F4F6B
:104910004091F60650E04450510984179507D4F2AF
:104920000197959587959093F3038093F2038A9767
:104930000CF4FAC0C901330FAA0BBB0B8093EE0332
:104940009093EF03A093F003B093F10389E090E01C
:104950009093EB038093EA0383CD8091F60689332D
:1049600040F082819381895791098335910508F43C
:1049700096C18091F606823209F472C082819381D9
:10498000895791098335910508F4E8C182819381A3
:104990008C549109C59708F08BC08091F60684303D
:1049A00031F4848195818097479708F43BC28091C8
:1049B000F606843408F47CC0848195818954910979
:1049C000C39708F075C09F012A5F3F4FBF016A5728
:1049D0007F4FC12CD12C7601D9014D915C9149506A
:1049E00051094930510508F063C0D90112964D9123
:1049F0005C911397465151094131510508F027C286
:104A0000D701C601880F991FAA1FBB1F6C017D012A
:104A10006894C0F82C5F3F4F26173707E9F6E0E2AD
:104A2000F0E0F093F303E093F203C092EE03D09230
:104A3000EF03E092F003F092F10327E030E03093CF
:104A4000EB032093EA030CCD109229031092280364
:104A50002ECD882309F45AC8FE017E964F0143C823
:104A6000828193810A97099708F088CF2091F606F2
:104A7000CF01820F911D820F911DDC0112978D9144
:104A80009C910A97099708F079CF1092F30310923E
:104A9000F2034092EE035092EF036092F0037092A3
:104AA000F103E6E0F0E0F093EB03E093EA03D8CC07
:104AB0008091F606863460F1828193810C970B9782
:104AC00008F4D5C125C0D90112966D917C91139738
:104AD0006E5171096731710508F001C2D701C60135
:104AE000880F991FAA1FBB1F6C017D016894C0F835
:104AF0004E5F5F4F2C5F3F4F4534510509F4D2C1E3
:104B0000D9016D917C916C5071096B307105D8F2AF
:104B10008091F606883540F082819381855891090D
:104B20008B35910508F4EBC18091F6068032E1F4F3
:104B30008281938106970697B8F4848195810997BD
:104B4000099790F49F012A5F3F4FBF01625C7F4F3E
:104B5000C12CD12C7601D9014D915C91465051095F
:104B60004630510508F4E7C12091F6033091F70370
:104B7000CF57DF4F39832883C158D04026303105C5
:104B80000CF4A1CC8F010A5F1F4FB5ECCB2EBDE911
:104B9000DB2EBCE1EB2EB1E8FB2E83E090E0EF963C
:104BA0009FAF8EAFEF97D8016D917C91F80134974C
:104BB000A080B18080E090E04BD3CD57DF4F688379
:104BC00079838A839B83C358D040B50180E090E00D
:104BD0003FD34B015C012DEC3CEC4CE45FE399D3FB
:104BE0009B01AC01CD57DF4F688179818A819B8120
:104BF000C358D04029D387FD1BC02DEC3CEC4CE4BE
:104C00005FE3CD57DF4F688179818A819B81C358EB
:104C1000D0407FD39B01AC01C501B40115D3E82F6F
:104C2000880FFF0BEE27FF0FEE1FFF27319602C004
:104C3000E0E0F0E0A701960163E971E080E091E037
:104C400033D56F01FF0FEE08FF08C626D726E826EA
:104C5000F926EF96EEADFFADEF973196EF96FFAFE9
:104C6000EEAFEF970E5F1F4FCF57DF4F288139818F
:104C7000C158D040E217F30709F095CFC092EE0378
:104C8000D092EF03E092F003F092F10380E290E023
:104C90009093F3038093F2038FEF9FEF59CE8481BB
:104CA0009581CA97899708F064CE9F012A5F3F4F8C
:104CB000C12CD12C760143E050E0D9016D917C915B
:104CC0006A5071096930710508F053CED901129606
:104CD0006D917C911397665171096131710570F581
:104CE000D701C601880F991FAA1FBB1F6C017D0148
:104CF0006894C0F84E5F5F4F2C5F3F4F4B335105B8
:104D0000E1F69F012A583F4FD9012D913C912A503D
:104D100031092930310508F02CCE2CE130E03093F8
:104D2000F3032093F203C092EE03D092EF03E092DC
:104D3000F003F092F1038AE090E00ACED9011296D6
:104D40006D917C911397665071096730710508F079
:104D500010CECC0CDD1CEE1CFF1CCCCF8091F606D7
:104D6000813208F413CE84819581CA97899708F01F
:104D70000DCE9F012A5F3F4FC12CD12C760143E01D
:104D800050E0D9016D917C916A50710969307105CB
:104D900008F0FCCDD90112966D917C911397665164
:104DA00071096131710570F5D701C601880F991F2E
:104DB000AA1FBB1F6C017D016894C0F84E5F5F4F56
:104DC0002C5F3F4F43325105E1F69F012A5B3F4F75
:104DD000D9012D913C912A5031092930310508F033
:104DE000D5CDE0E1F0E0F093F303E093F203C0925D
:104DF000EE03D092EF03E092F003F092F10326E08D
:104E000030E01DCED90112966D917C9113976650BA
:104E100071096730710508F0B9CDCC0CDD1CEE1CB2
:104E2000FF1CCCCF868197810997099708F0BFCDE9
:104E30001092F3031092F2034092EE035092EF03AC
:104E40006092F0037092F103E7E0F0E02CCED9011C
:104E500012964D915C911397465051094730510578
:104E600008F026CECC0CDD1CEE1CFF1CD3CD8481BB
:104E700095810997099708F04BCE868197818C9789
:104E80004F9708F045CE8085918589974D9708F01A
:104E90003FCE9F01265F3F4FC12CD12C760145E0CC
:104EA00050E02ECE9F0126573F4FD9012D913C91C6
:104EB0002C5031092B30310508F02ACEE0E2F0E029
:104EC000F093F303E093F203C092EE03D092EF036A
:104ED000E092F003F092F10388E090E039CDD9013F
:104EE00012966D917C911397695071096930710523
:104EF00008F00ECECC0CDD1CEE1CFF1CF9CD84811D
:104F00009581825491098E9708F00ECE8F01045C32
:104F10001F4F8DE190E020E030E0FACCD8014D91B8
:104F20005C91485151094231510510F0CB01F8CC48
:104F3000220F331FEACCD90112964D915C91139741
:104F4000495151094331510508F5D701C601880F70
:104F5000991FAA1FBB1F6C017D016894C0F82C5FCC
:104F60003F4F2617370709F0F6CD2EE030E030939B
:104F7000F3032093F203C092EE03D092EF03E0928A
:104F8000F003F092F1038FE090E0E2CCD9011296A9
:104F90004D915C911397495051094930510508F0E2
:104FA000E3CDCC0CDD1CEE1CFF1CD9CF8091010899
:104FB00090910208009709F090D48091FF0787FD37
:104FC00003C060E00C94D0150895CF93DF93109246
:104FD00001061092000688EE93E0A0E0B0E0809316
:104FE000020690930306A0930406B093050620E101
:104FF00032E03093FF052093FE0525EC30E030933E
:105000000B0620930A0624EC30E030930D06209323
:105010000C0620EC30E030930F0620930E0621ECB6
:1050200030E0309311062093100622EC30E03093EC
:1050300013062093120626EC30E0309315062093D9
:105040001406109217061092180610921906109264
:105050001A061092A0061092A1061092A4061092B1
:10506000A60642E050E060E070E04093A70650934F
:10507000A8066093A9067093AA061092BE06109225
:10508000C8061092C70622E232E03093C60620938B
:10509000C5061092CA0620E52093E4061092E506A4
:1050A0001092E9061092E8068093EA069093EB06C8
:1050B000A093EC06B093ED068EE292E09093E706A3
:1050C0008093E6061092FA071092000810920708E3
:1050D000109208081092090810920A0881E0809343
:1050E0000608809303081092040892E09093050844
:1050F0008093F907CCE2D1E0D093FE07C093FD077F
:105100008CE291E055D390930208809301080097B8
:1051100069F0FC019E01119221503040E1F784E6D4
:1051200090E09093FC078093FB0708C01092FE0765
:105130001092FD071092FC071092FB0783E080930A
:10514000FF078091FA07882341F061E083E00E9425
:10515000D01560E083E00E94A115E5EFF1E0E49155
:10516000F0E0EE0FFF1FE852FE4F8591949190936F
:105170000C0880930B08E5E9F1E0E491E0930D0859
:1051800085E292E090932709809326091092E10727
:105190001092E00788EE93E0A0E0B0E08093E20791
:1051A0009093E307A093E407B093E50784E592E0CA
:1051B0009093DF078093DE071092F8071092F707AD
:1051C0001092EA071092C8071092C70780E492E095
:1051D0009093C6078093C5071092D5078FEF8093F1
:1051E000D4071092D3071092D60787E28093D00796
:1051F0001092D1071092D2071092CF071092CE07CB
:1052000084E08093D70782E08093D80781E0809381
:10521000D90780E18093DA0780E28093DB0780E49E
:105220008093DC0780E88093DD0740E050E063E096
:1052300085EC97E00E945D0C8BE08093F306109262
:10524000F506DF91CF91089540D008F481E00895EC
:10525000E89409C097FB3EF4909580957095619510
:105260007F4F8F4F9F4F9923A9F0F92F96E9BB27C6
:105270009395F695879577956795B795F111F8CF42
:10528000FAF4BB0F11F460FF1BC06F5F7F4F8F4FAD
:105290009F4F16C0882311F096E911C0772321F0A3
:1052A0009EE8872F762F05C0662371F096E8862F3B
:1052B00070E060E02AF09A95660F771F881FDAF792
:1052C000880F9695879597F90895990F0008550FBF
:1052D000AA0BE0E8FEEF16161706E807F907C0F07C
:1052E00012161306E407F50798F0621B730B840B84
:1052F000950B39F40A2661F0232B242B252B21F45E
:1053000008950A2609F4A140A6958FEF811D811DFD
:1053100008950BD078C069D028F06ED018F095238E
:1053200009F05AC05FC01124A2C07ED0A0F3959F9F
:10533000D1F3950F50E0551F629FF001729FBB277C
:10534000F00DB11D639FAA27F00DB11DAA1F649F28
:105350006627B00DA11D661F829F2227B00DA11DDB
:10536000621F739FB00DA11D621F839FA00D611D61
:10537000221F749F3327A00D611D231F849F600D82
:10538000211D822F762F6A2F11249F5750408AF0BB
:10539000E1F088234AF0EE0FFF1FBB1F661F771F47
:1053A000881F91505040A9F79E3F510570F014C0DE
:1053B0005EC05F3FECF3983EDCF38695779567958A
:1053C000B795F795E7959F5FC1F7FE2B880F911D65
:1053D0009695879597F9089597F99F6780E870E00B
:1053E00060E008959FEF80EC089500240A9416165B
:1053F000170618060906089500240A9412161306C3
:10540000140605060895092E0394000C11F4882350
:1054100052F0BB0F40F4BF2B11F460FF04C06F5F6C
:105420007F4F8F4F9F4F089557FD9058440F551F42
:1054300059F05F3F71F04795880F97FB991F61F016
:105440009F3F79F087950895121613061406551F8D
:10545000F2CF4695F1DF08C0161617061806991FF9
:10546000F1CF86957105610508940895E894BB27EE
:1054700066277727CB0197F9089509D0A59F900D4E
:10548000B49F900DA49F800D911D11240895A29F9B
:10549000B001B39FC001A39F700D811D1124911D08
:1054A000B29F700D811D1124911D08955058BB2786
:1054B000AA270ED0A8CF99DF30F09EDF20F031F47C
:1054C0009F3F11F41EF48ECF0EF4E095E7FB84CFDE
:1054D000E92FAADF80F3BA176207730784079507DD
:1054E00018F071F49EF5C2CF0EF4E0950B2EBA2F92
:1054F000A02D0B01B90190010C01CA01A0011124DA
:10550000FF27591B99F0593F50F4503E68F11A1685
:10551000F040A22F232F342F4427585FF3CF469516
:1055200037952795A795F0405395C9F77EF41F1638
:10553000BA0B620B730B840BBAF09150A1F0FF0F02
:10554000BB1F661F771F881FC2F70EC0BA0F621FEE
:10555000731F841F48F4879577956795B795F795DE
:105560009E3F08F0B3CF9395880F08F09927EE0F70
:105570009795879508950CD046CF3EDF40F035DFF4
:1055800030F021F45F3F19F027CF511170CF2ACFAF
:105590004BDF98F39923C9F35523B1F3951B550BB2
:1055A000BB27AA2762177307840738F09F5F5F4FF6
:1055B000220F331F441FAA1FA9F333D00E2E3AF037
:1055C000E0E830D091505040E695001CCAF729D051
:1055D000FE2F27D0660F771F881FBB1F26173707A0
:1055E0004807AB07B0E809F0BB0B802DBF01FF27D0
:1055F00093585F4F2AF09E3F510568F0EDCE37CFAC
:105600005F3FECF3983EDCF3869577956795B79509
:10561000F7959F5FC9F7880F911D9695879597F924
:105620000895E1E0660F771F881FBB1F621773079D
:105630008407BA0720F0621B730B840BBA0BEE1FB2
:1056400088F7E095089504D06894B11110CF0895BB
:10565000F3DE88F09F5790F0B92F9927B751A0F04B
:10566000D1F0660F771F881F991F1AF0BA95C9F7F6
:1056700012C0B13081F0FADEB1E00895F7CE672FA5
:10568000782F8827B85F39F0B93FCCF386957795A6
:105690006795B395D9F73EF490958095709561958F
:1056A0007F4F8F4F9F4F0895DB018F939F93E5DED0
:1056B000BF91AF91A29F800D911DA39F900DB29FAE
:1056C000900D11240895AA1BBB1B51E107C0AA1F0E
:1056D000BB1FA617B70710F0A61BB70B881F991F93
:1056E0005A95A9F780959095BC01CD010895A1E246
:1056F0001A2EAA1BBB1BFD010DC0AA1FBB1FEE1F4C
:10570000FF1FA217B307E407F50720F0A21BB30B96
:10571000E40BF50B661F771F881F991F1A9469F712
:1057200060957095809590959B01AC01BD01CF016E
:105730000895EE0FFF1F881F8BBF0790F691E02D95
:1057400019940F93083090F0982F872F762F652F9C
:10575000542F432F322F22270850F4CF220F331F0C
:10576000441F551F661F771F881F991F0A95B2F7A0
:105770000F91089597FB10F8169400080F930830C6
:1057800098F00850232F342F452F562F672F782F4E
:10579000892F902DF4CF05949795879577956795E8
:1057A00057954795379527950A95AAF70F9108952C
:1057B000CF93DF938230910510F482E090E0E09186
:1057C0002B09F0912C0920E030E0C0E0D0E03097C8
:1057D00011F14081518148175907C0F04817590706
:1057E00061F482819381209719F09B838A832BC077
:1057F00090932C0980932B0926C02115310519F0AF
:105800004217530718F49A01BE01DF01EF0102802D
:10581000F381E02DDCCF2115310509F1281B390B6F
:105820002430310590F412968D919C911397611557
:10583000710521F0FB019383828304C090932C09AE
:1058400080932B09FD01329644C0FD01E20FF31F46
:1058500081939193225031092D933C933AC020912A
:10586000290930912A09232B41F420910802309113
:10587000090230932A0920932909209106023091C8
:1058800007022115310541F42DB73EB740910A02B8
:1058900050910B02241B350BE0912909F0912A0944
:1058A000E217F307A0F42E1B3F0B2817390778F0F7
:1058B000AC014E5F5F4F2417350748F04E0F5F1F56
:1058C00050932A09409329098193919302C0E0E003
:1058D000F0E0CF01DF91CF9108950F931F93CF9305
:1058E000DF93009709F48CC0FC0132971382128277
:1058F00000912B0910912C090115110581F42081CB
:105900003181820F931F2091290930912A0928178C
:10591000390779F5F0932A09E093290971C0D80174
:1059200040E050E0AE17BF0750F412962D913C9125
:105930001397AD012115310509F1D901F3CF9D016F
:10594000DA013383228360817181860F971F82176A
:10595000930769F4EC0128813981260F371F2E5FE8
:105960003F4F318320838A819B8193838283452BA0
:1059700029F4F0932C09E0932B0942C01396FC9371
:10598000EE931297ED01499159919E01240F351F15
:10599000E217F30771F480819181840F951F0296BD
:1059A00011969C938E938281938113969C938E93F0
:1059B0001297E0E0F0E0D80112968D919C91139738
:1059C000009719F0F8018C01F6CF8D919C91980108
:1059D0002E5F3F4F820F931F2091290930912A0992
:1059E0002817390769F4309729F410922C0910927E
:1059F0002B0902C01382128210932A0900932909ED
:105A0000DF91CF911F910F9108956F927F928F92A6
:105A10009F92AF92BF92CF92DF92EF92FF920F933D
:105A20001F93CF93DF93EC01009781F4CB01DF91BB
:105A3000CF911F910F91FF90EF90DF90CF90BF908B
:105A4000AF909F908F907F906F90B2CEFC01E60F49
:105A5000F71F9C0122503109E217F30708F4A8C090
:105A6000D9010D911C91119706171707A8F0053061
:105A7000110508F49BC0C80104978617970708F41E
:105A800095C002501109061B170B019311936D93DA
:105A90007C93CF0122DF8AC05B01A01AB10A4C01BE
:105AA000800E911EA0912B09B0912C0940E050E08E
:105AB000E12CF12C109709F44AC0A815B905D1F5CD
:105AC0006D907C901197630182E0C80ED11CCA14BE
:105AD000DB0480F1A3014A195B096A0182E0C80E68
