:100000000C945E000C9486000C9486000C94860080
:100010000C9486000C9486000C9486000C94860048
:100020000C9486000C9486000C9486000C94860038
:100030000C9486000C9486000C9486000C94860028
:100040000C94EE030C9486000C945E040C9438041B
:100050000C9486000C9486000C9486000C94860008
:100060000C9486000C9486000000000024002700F9
:100070002A0000000008000201000003040700003D
:10008000000000000000010204081020408001026E
:1000900004081020010204081020000000002500C0
:1000A00028002B00040404040404040402020202D5
:1000B000020203030303030390045F0811241FBE1D
:1000C000CFEFD8E0DEBFCDBF11E0A0E0B1E0EEE0C1
:1000D000F5E102C005900D92AC31B107D9F721E0EE
:1000E000ACE1B1E001C01D92A53FB207E1F710E01D
:1000F000CDE5D0E004C02197FE010E944209CC3535
:10010000D107C9F70E943B050C947A0A0C940000B1
:100110002091D9013091DA018091ED019091EE01A9
:10012000232B89F401969093EE018093ED012091A9
:10013000EB013091EC0182179307E0F01092EE0191
:100140001092ED0110C001979093EE018093ED01A4
:10015000892B81F48091EB019091EC0101979093B0
:10016000EE018093ED01E091EF01F091F001309705
:1001700009F00994089590E0FC01EE58FF4F249196
:10018000FC01EA57FF4F3491FC01EC55FF4FE4911D
:10019000EE23B9F1222339F1233091F038F42130E4
:1001A000A9F0223001F584B58F7D12C0273091F07F
:1001B0002830A1F02430B9F4809180008F7D03C0F5
:1001C000809180008F77809380000DC084B58F77F9
:1001D00084BD09C08091B0008F7703C08091B000CA
:1001E0008F7D8093B000F0E0EE0FFF1FE656FF4FCB
:1001F000A591B4918FB7F894EC9130953E233C9340
:100200008FBF08958F929F92AF92BF92CF92DF924D
:10021000EF92FF922091C4013091C501821793079C
:1002200008F052C04B01AA24BB24E82DC52ED62EBF
:10023000E72EFF24FC2D342F2091C901222361F0E9
:10024000829E40011124E92DC29E60011124FD2DE2
:10025000429FD00111243B2FF090CF01E090CC01C0
:10026000A091CA01B091CB01FE1008C0AC01440FAF
:10027000551F840F951F8A0F9B1F14C0880F991F4D
:10028000880F991F8A0F9B1F472F552766277727AF
:10029000DC01AF0DB11D222321F0429FA0011124EA
:1002A000452F4C932091CC01DC01A20FB11DEC93A2
:1002B0002091CD01DC01A20FB11DFC932091CE0154
:1002C000FC01E20FF11D3083FF90EF90DF90CF90A3
:1002D000BF90AF909F908F900895CF93DF9390E061
:1002E000FC01EA57FF4F2491FC01EC55FF4F84912C
:1002F000882361F190E0880F991FFC01E859FF4FB6
:10030000C591D491FC01E656FF4FA591B4916111BE
:1003100009C09FB7F8948881209582238883EC9147
:100320002E230BC0623061F49FB7F8943881822F7E
:10033000809583238883EC912E2B2C939FBF06C03E
:100340008FB7F894E8812E2B28838FBFDF91CF9150
:1003500008953FB7F8948091210190912201A091D6
:100360002301B091240126B5A89B05C02F3F19F0A9
:100370000196A11DB11D3FBFBA2FA92F982F882725
:10038000820F911DA11DB11DBC01CD0142E0660F80
:10039000771F881F991F4A95D1F70895CF92DF9252
:1003A000EF92FF920F931F93CF93DF936C017A012B
:1003B0008B01C0E0D0E0CE15DF0589F0D8016D914A
:1003C0008D01D601ED91FC910190F081E02DC601E7
:1003D0000995892B11F47E0102C02196ECCFC7014B
:1003E000DF91CF911F910F91FF90EF90DF90CF9011
:1003F0000895089580E090E00895FC01538D448DA8
:10040000252F30E0842F90E0821B930B541710F0BF
:10041000CF96089501970895FC01918D828D9817CC
:1004200061F0828DDF01A80FB11D5D968C91928DD8
:100430009F5F9F73928F90E008958FEF9FEF0895D5
:10044000FC01918D828D981731F0828DE80FF11D9E
:10045000858D90E008958FEF9FEF0895FC01918DB9
:10046000228D892F90E0805C9F4F821B91098F73B2
:100470009927089585E291E00E942E0221E0892BC0
:1004800009F420E0822F0895FC01848DDF01A80F7C
:10049000B11DA35ABF4F2C91848D90E001968F73AC
:1004A0009927848FA689B7892C93A089B1898C91CB
:1004B00080648C93938D848D981306C00288F38991
:1004C000E02D80818F7D80830895EF92FF920F93BE
:1004D0001F93CF93DF93EC0181E0888F9B8D8C8DF0
:1004E000981305C0E889F989808185FD24C0F62E1E
:1004F0000B8D10E00F5F1F4F0F731127E02E8C8DB7
:10050000E8120CC00FB607FCFACFE889F9898081A0
:1005100085FFF5CFCE010E944402F1CF8B8DFE0105
:10052000E80FF11DE35AFF4FF0820B8FEA89FB8938
:100530008081806207C0EE89FF896083E889F9893C
:1005400080818064808381E090E0DF91CF911F9172
:100550000F91FF90EF900895CF93DF93EC01888D7A
:100560008823C9F0EA89FB89808185FD05C0A889B7
:10057000B9898C9186FD0FC00FB607FCF5CF80813D
:1005800085FFF2CFA889B9898C9185FFEDCFCE0187
:100590000E944402E7CFDF91CF91089580E090E080
:1005A000892B29F00E943A0281110C9400000895D1
:1005B000CF92DF92EF92FF920F931F93CF93DF932F
:1005C000CDB7DEB729970FB6F894DEBF0FBECDBF0B
:1005D0008C01DC0118968D919C911997892B09F457
:1005E000A3C00E94A901F801C684D784E088F188DD
:1005F000DC01CB018C199D09AE09BF098C329140F9
:10060000A105B10570F3F894D80114968D919C91D1
:1006100015979A8389831896ED91FC9119977F011C
:10062000BFEFEB1AFB0A80818987F801908102886D
:10063000F389E02DD80154968C91992309F430C0A8
:100640009081982B98879081809589238F838F81C3
:100650008C8388E08B8358856F8149853B812C8111
:1006600089819A81D701508347FD252F3A952083B0
:10067000262F39F0441F00C000006083000000C036
:10068000F2CF38E04D9160830000019761F7D80107
:100690005396FC93EE93529749873B832C833AC041
:1006A0009081982B98879081809589238F838F8163
:1006B0008E8388E08D8358856F8149853D812E81A9
:1006C00089819A81D701508347FD252F00C000C042
:1006D000208300C000C000C000C000C060830000D4
:1006E000262F3A9541F0441F000000C000C000C012
:1006F00000C000C0E8CF38E04D9100C0608300C06A
:10070000019709F7D8015396FC93EE9352974987C6
:100710003D832E839A83898378940E94A901F801EE
:1007200066877787808B918B29960FB6F894DEBF0A
:100730000FBECDBFDF91CF911F910F91FF90EF9032
:10074000DF90CF9008950F931F938095853560F4C7
:10075000682F660F860F282F209590E0A0E0B0E06C
:10076000BC01CD01822B21C08A3A80F48555982F97
:10077000990F980F692F6095462F50E060E070E068
:100780008A019B01192BC901B8010FC08A5A682F31
:10079000660F860F282F209590E0A0E0B0E0DC01E6
:1007A00099278827BC01CD01722B1F910F910895C5
:1007B0000E94750A0E94BD082FEF30E040E050E033
:1007C0000E94CB08862F0E94A3036093E3017093DD
:1007D000E4018093E5019093E60108951F920F9242
:1007E0000FB60F9211242F933F938F939F93AF9344
:1007F000BF9380911D0190911E01A0911F01B091A6
:10080000200130911C0123E0230F2D3720F40196A5
:10081000A11DB11D05C026E8230F0296A11DB11D23
:1008200020931C0180931D0190931E01A0931F0132
:10083000B09320018091210190912201A091230188
:10084000B09124010196A11DB11D809321019093C7
:100850002201A0932301B0932401BF91AF919F91F6
:100860008F913F912F910F900FBE0F901F90189571
:100870001F920F920FB60F9211242F933F934F9315
:100880005F936F937F938F939F93AF93BF93EF93F8
:10089000FF9385E291E00E944402FF91EF91BF91A6
:1008A000AF919F918F917F916F915F914F913F9108
:1008B0002F910F900FBE0F901F9018951F920F92BF
:1008C0000FB60F9211242F938F939F93EF93FF9363
:1008D000E0913501F09136018081E0913B01F0918A
:1008E0003C0182FD12C0908180913E018F5F8F7329
:1008F00020913F01821751F0E0913E01F0E0EB5D65
:10090000FE4F958F80933E0101C08081FF91EF9152
:100910009F918F912F910F900FBE0F901F90189560
:10092000CF93DF93109228011092270188EE93E075
:10093000A0E0B0E08093290190932A01A0932B01BD
:10094000B0932C018EE091E09093260180932501D5
:1009500085EC90E0909332018093310184EC90E03B
:10096000909334018093330180EC90E090933601B2
:100970008093350181EC90E09093380180933701AA
:1009800082EC90E090933A018093390186EC90E0FC
:1009900090933C0180933B0110923E0110923F01E5
:1009A00010924001109241011092C3011092C901AE
:1009B0001092D0011092D1011092D2011092D30165
:1009C00081E08093CF018093CC011092CD0192E021
:1009D0009093CE018093C201CCE2D1E0D093C701C5
:1009E000C093C6018CE291E00E9448099093CB012C
:1009F0008093CA01009769F0FC019E011192215079
:100A00003040E1F784E690E09093C5018093C40103
:100A100008C01092C7011092C6011092C501109231
:100A2000C40183E08093C8018091C301882339F019
:100A300061E083E00E946D0183E00E94BB00E7EA71
:100A4000F0E0E491F0E0EE0FFF1FE656FF4F8591D6
:100A500094919093D5018093D401E9E8F0E0E4917A
:100A6000E093D6018AED93E09093F0018093EF013B
:100A7000DF91CF910895CF93DF9300D000D0CDB711
:100A8000DEB7789484B5826084BD84B5816084BD0E
:100A900085B5826085BD85B5816085BD80916E001C
:100AA000816080936E00109281008091810082604D
:100AB000809381008091810081608093810080918A
:100AC00080008160809380008091B1008460809379
:100AD000B1008091B00081608093B00080917A0075
:100AE000846080937A0080917A00826080937A009B
:100AF00080917A00816080937A0080917A0080688A
:100B000080937A001092C100E0913501F091360196
:100B100082E08083E0913101F09132011082E09116
:100B20003301F091340180E1808310923D01E09126
:100B30003901F0913A0186E08083E0913701F0912C
:100B40003801808180618083E0913701F091380124
:100B5000808188608083E0913701F0913801808145
:100B600080688083E0913701F091380180818F7D2A
:100B700080838091C80187FD07C061E00E946D01FC
:100B80008091C8010E94BB0081E08093C30186E090
:100B900090E09093D8018093D70182E390E0A0E0A9
:100BA000B0E08093DB019093DC01A093DD01B09372
:100BB000DE0182E090E09093EC018093EB0180E015
:100BC00090E0AFEFB0E08093E3019093E401A09355
:100BD000E501B093E6011092EE011092ED01109242
:100BE000DA011092D9012FB7F89480911D019091EC
:100BF0001E01A0911F01B09120012FBF4091DF0184
:100C00005091E0016091E1017091E201841B950B2C
:100C1000A60BB70B4091DB015091DC016091DD0127
:100C20007091DE01481759076A077B0708F044C234
:100C30002FB7F89480911D0190911E01A0911F0182
:100C4000B09120012FBF8093DF019093E001A0932A
:100C5000E101B093E2018091D7019091D8018330F6
:100C6000910509F466C04CF481309105D1F00297EA
:100C700009F022C200E010E04BC08530910509F474
:100C8000AAC10CF463C0069709F016C24091E301B3
:100C90005091E4016091E5017091E60184E190E0FA
:100CA00003C200E010E0E12CF12C6091C4017091CE
:100CB000C501E616F70608F0F9C1C8010E942E0921
:100CC0008091ED01860F0E94A303AB01BC01C70117
:100CD0000E9402012FEFE21AF20A1395E6CF8091EB
:100CE000ED019091EE01800F911F63E070E00E9492
:100CF0002E09892BA9F44091E3015091E401609100
:100D0000E5017091E601C8010E9402010F5F1F4FCB
:100D10008091C4019091C5010817190700F3C6C15D
:100D20004091E7015091E8016091E9017091EA0179
:100D3000EACF4091E3015091E4016091E5017091A7
:100D4000E6018091ED019091EE01AEC1212C312C94
:100D50001A821982A12CB12C8091C4019091C501F5
:100D6000A816B90608F0A2C12091ED013091EE015C
:100D7000A216B30649F08091EB019091EC01821B21
:100D8000930BA816B90649F44091E3015091E40190
:100D90006091E5017091E6010FC12091CF010091B2
:100DA000CC014091CA015091CB01C090C901822F62
:100DB00090E09090CD018090CE0120135CC08A011C
:100DC000020D131DCC2009F440C0D12CE12CF12CD4
:100DD000F801E80FF91F608170E0762F6627072E73
:100DE000000C880B990BA70196010E94FD083901A0
:100DF00055244424F801E90DF11D608170E0762F3F
:100E00006627072E000C880B990BA70196010E94FC
:100E1000FD08B42FA32F922F8827482A592A6A2A1F
:100E20007B2AF801E80DF11D608170E0762F6627BE
:100E3000072E000C880B990BA70196010E94FD0854
:100E4000422A532A642A752A91C0F801E80FF91F33
:100E50008081F801E90DF11D4080512C612C712C2D
:100E6000762C652C542C4424682AF801E80DF11DD9
:100E70008081482A7BC0A981BA81A40FB51FBC8399
:100E8000AB8310E0CC2009F45AC0D12CE12CF12C1A
:100E9000FD01E80FF91F608170E0762F6627072EAD
:100EA000000C880B990BA70196010E94FD08722E79
:100EB000662455244424EB81FC81E00FF11F6081FE
:100EC00070E0762F6627072E000C880B990BA70180
:100ED00096010E94FD08D90199278827482A592A96
:100EE0006A2A7B2AEB81FC81E80DF11D608170E0AC
:100EF000762F6627072E000C880B990BA701960109
:100F00000E94FD08422A532A642A752AEB81FC813B
:100F1000E90DF11D608170E0762F6627072E000C29
:100F2000880B990BA70196010E94FD08B42FA32FEF
:100F3000922F8827482A592A6A2A7B2A17C0EB81D0
:100F4000FC81E00FF11F4080512C612C712C32018B
:100F500055244424EB81FC81E80DF11D8081482A51
:100F6000EB81FC81E90DF11D8081582A462D50E06E
:100F700055954795052E000C660B770BBA01552742
:100F80004427852D90E095958795092E000CAA0B96
:100F9000BB0BBA2FA92F982F8827482B592B6A2BC8
:100FA0007B2B512C55944794052C000C6608770830
:100FB0004429552966297729C5010E940201BFEFFE
:100FC000AB1ABB0AE981FA813496FA83E983F3E02C
:100FD0002F0E311CC1CE1091E301E090E40160912D
:100FE000E5012091EB013091EC01E091ED01F091F0
:100FF000EE015901AE1ABF0A0091E701D090E80155
:101000008091E9018E9FA0018F9F500D11246A9D50
:10101000C0016B9D900D1124840F951FB9010E9492
:101020002E09F62EDE9EA001DF9E500D1124EA9CB3
:10103000C001EB9C900D1124840F951FB9010E94F3
:101040002E09462F50E060E070E0762F652F542F78
:101050004427DB01CA01AF296C017D010E9FA0016D
:101060000F9F500D11241A9DC0011B9D900D11243E
:10107000840F951FB9010E942E09C62A00E010E0D6
:101080008091C4019091C5010817190740F4B70178
:10109000A601C8010E9402010F5F1F4FF1CF82EC31
:1010A00091E00E94D80202C00E94020182EC91E00D
:1010B0000E94D8020E9488000E94CE0294CD8091A6
:1010C000CA019091CB01009711F00E94DD09809137
:1010D000C80187FD03C060E00C946D0108958F92F4
:1010E0009F92AF92BF92CF92DF92EF92FF92CF93F7
:1010F000DF93EC01688179818A819B81611571059B
:101100008105910521F464E279ED8BE597E02DE10D
:1011100033EF41E050E00E94CB0849015A019B01A6
:10112000AC01A7EAB1E40E94EA086B017C01ACEED5
:10113000B4EFA50194010E94F808DC01CB018C0DED
:101140009D1DAE1DBF1DB7FF03C00197A109B0488B
:1011500088839983AA83BB83BC01CD019F77DF91EC
:10116000CF91FF90EF90DF90CF90BF90AF909F9086
:101170008F9008950E946F08089580E091E00E948A
:101180006F0808956093000170930101809302013C
:10119000909303010895052E97FB1EF400940E947E
:1011A000E20857FD07D00E94FD0807FC03D04EF46B
:1011B0000C94E20850954095309521953F4F4F4F44
:1011C0005F4F089590958095709561957F4F8F4FF3
:1011D0009F4F08950E941F09A59F900DB49F900DE9
:1011E000A49F800D911D11240895B7FF0C94EA0867
:1011F0000E94EA08821B930B0895A1E21A2EAA1BF3
:10120000BB1BFD010DC0AA1FBB1FEE1FFF1FA217B6
:10121000B307E407F50720F0A21BB30BE40BF50BB3
:10122000661F771F881F991F1A9469F7609570953C
:10123000809590959B01AC01BD01CF010895A29FBF
:10124000B001B39FC001A39F700D811D1124911D9A
:10125000B29F700D811D1124911D0895AA1BBB1B07
:1012600051E107C0AA1FBB1FA617B70710F0A61BA6
:10127000B70B881F991F5A95A9F780959095BC01C7
:10128000CD010895EE0FFF1F0590F491E02D099414
:10129000CF93DF938230910510F482E090E0E091EB
:1012A000F301F091F40120E030E0C0E0D0E03097AD
:1012B00011F14081518148175907C0F0481759076B
:1012C00061F482819381209719F09B838A832BC0DC
:1012D0009093F4018093F30126C02115310519F094
:1012E0004217530718F49A01BE01DF01EF01028093
:1012F000F381E02DDCCF2115310509F1281B390BD5
:101300002430310590F412968D919C9113976115BC
:10131000710521F0FB019383828304C09093F40153
:101320008093F301FD01329644C0FD01E20FF31FEB
:1013300081939193225031092D933C933AC020918F
:10134000F1013091F201232B41F4209106013091FB
:1013500007013093F2012093F101209104013091B3
:1013600005012115310541F42DB73EB74091080123
:1013700050910901241B350BE091F101F091F2012C
:10138000E217F307A0F42E1B3F0B2817390778F05C
:10139000AC014E5F5F4F2417350748F04E0F5F1FBB
:1013A0005093F2014093F1018193919302C0E0E0E8
:1013B000F0E0CF01DF91CF9108950F931F93CF936A
:1013C000DF93009709F48CC0FC01329713821282DC
:1013D0000091F3011091F4010115110581F42081B0
:1013E0003181820F931F2091F1013091F201281772
:1013F000390779F5F093F201E093F10171C0D8015A
:1014000040E050E0AE17BF0750F412962D913C918A
:101410001397AD012115310509F1D901F3CF9D01D4
:10142000DA013383228360817181860F971F8217CF
:10143000930769F4EC0128813981260F371F2E5F4D
:101440003F4F318320838A819B8193838283452B05
:1014500029F4F093F401E093F30142C01396FC9356
:10146000EE931297ED01499159919E01240F351F7A
:10147000E217F30771F480819181840F951F029622
:1014800011969C938E938281938113969C938E9355
:101490001297E0E0F0E0D80112968D919C9113979D
:1014A000009719F0F8018C01F6CF8D919C9198016D
:1014B0002E5F3F4F820F931F2091F1013091F20177
:1014C0002817390769F4309729F41092F401109223
:1014D000F30102C0138212821093F2010093F10112
:1014E000DF91CF911F910F91089581E090E0F894E2
:1014F0000C947A0A10E0CDE5D0E004C0FE010E9411
:0E15000042092196CE35D107C9F7F894FFCFE6
:10150E00010000000000F5018000000000006502EF
:0C151E00CE01FD01AC022E020C022002E6
:00000001FF
